{
  "_format": "hh-sol-artifact-1",
  "contractName": "CryptoCharts",
  "sourceName": "contracts/CryptoCharts.sol",
  "abi": [
    {
      "inputs": [],
      "stateMutability": "nonpayable",
      "type": "constructor"
    },
    {
      "anonymous": false,
      "inputs": [
        {
          "indexed": true,
          "internalType": "address",
          "name": "owner",
          "type": "address"
        },
        {
          "indexed": true,
          "internalType": "address",
          "name": "approved",
          "type": "address"
        },
        {
          "indexed": true,
          "internalType": "uint256",
          "name": "tokenId",
          "type": "uint256"
        }
      ],
      "name": "Approval",
      "type": "event"
    },
    {
      "anonymous": false,
      "inputs": [
        {
          "indexed": true,
          "internalType": "address",
          "name": "owner",
          "type": "address"
        },
        {
          "indexed": true,
          "internalType": "address",
          "name": "operator",
          "type": "address"
        },
        {
          "indexed": false,
          "internalType": "bool",
          "name": "approved",
          "type": "bool"
        }
      ],
      "name": "ApprovalForAll",
      "type": "event"
    },
    {
      "anonymous": false,
      "inputs": [
        {
          "indexed": false,
          "internalType": "address",
          "name": "sender",
          "type": "address"
        },
        {
          "indexed": false,
          "internalType": "uint256",
          "name": "tokenId",
          "type": "uint256"
        }
      ],
      "name": "ChartMinted",
      "type": "event"
    },
    {
      "anonymous": false,
      "inputs": [
        {
          "indexed": true,
          "internalType": "address",
          "name": "previousOwner",
          "type": "address"
        },
        {
          "indexed": true,
          "internalType": "address",
          "name": "newOwner",
          "type": "address"
        }
      ],
      "name": "OwnershipTransferred",
      "type": "event"
    },
    {
      "anonymous": false,
      "inputs": [
        {
          "indexed": true,
          "internalType": "address",
          "name": "from",
          "type": "address"
        },
        {
          "indexed": true,
          "internalType": "address",
          "name": "to",
          "type": "address"
        },
        {
          "indexed": true,
          "internalType": "uint256",
          "name": "tokenId",
          "type": "uint256"
        }
      ],
      "name": "Transfer",
      "type": "event"
    },
    {
      "inputs": [
        {
          "internalType": "string",
          "name": "ipfsLink",
          "type": "string"
        }
      ],
      "name": "addChart",
      "outputs": [],
      "stateMutability": "nonpayable",
      "type": "function"
    },
    {
      "inputs": [
        {
          "internalType": "address",
          "name": "to",
          "type": "address"
        },
        {
          "internalType": "uint256",
          "name": "tokenId",
          "type": "uint256"
        }
      ],
      "name": "approve",
      "outputs": [],
      "stateMutability": "nonpayable",
      "type": "function"
    },
    {
      "inputs": [
        {
          "internalType": "address",
          "name": "owner",
          "type": "address"
        }
      ],
      "name": "balanceOf",
      "outputs": [
        {
          "internalType": "uint256",
          "name": "",
          "type": "uint256"
        }
      ],
      "stateMutability": "view",
      "type": "function"
    },
    {
      "inputs": [
        {
          "internalType": "uint256",
          "name": "tokenId",
          "type": "uint256"
        }
      ],
      "name": "getApproved",
      "outputs": [
        {
          "internalType": "address",
          "name": "",
          "type": "address"
        }
      ],
      "stateMutability": "view",
      "type": "function"
    },
    {
      "inputs": [
        {
          "internalType": "uint256",
          "name": "",
          "type": "uint256"
        }
      ],
      "name": "ipfsLinks",
      "outputs": [
        {
          "internalType": "string",
          "name": "",
          "type": "string"
        }
      ],
      "stateMutability": "view",
      "type": "function"
    },
    {
      "inputs": [
        {
          "internalType": "address",
          "name": "owner",
          "type": "address"
        },
        {
          "internalType": "address",
          "name": "operator",
          "type": "address"
        }
      ],
      "name": "isApprovedForAll",
      "outputs": [
        {
          "internalType": "bool",
          "name": "",
          "type": "bool"
        }
      ],
      "stateMutability": "view",
      "type": "function"
    },
    {
      "inputs": [
        {
          "internalType": "uint256",
          "name": "tokenId",
          "type": "uint256"
        }
      ],
      "name": "mintChart",
      "outputs": [],
      "stateMutability": "nonpayable",
      "type": "function"
    },
    {
      "inputs": [],
      "name": "name",
      "outputs": [
        {
          "internalType": "string",
          "name": "",
          "type": "string"
        }
      ],
      "stateMutability": "view",
      "type": "function"
    },
    {
      "inputs": [],
      "name": "owner",
      "outputs": [
        {
          "internalType": "address",
          "name": "",
          "type": "address"
        }
      ],
      "stateMutability": "view",
      "type": "function"
    },
    {
      "inputs": [
        {
          "internalType": "uint256",
          "name": "tokenId",
          "type": "uint256"
        }
      ],
      "name": "ownerOf",
      "outputs": [
        {
          "internalType": "address",
          "name": "",
          "type": "address"
        }
      ],
      "stateMutability": "view",
      "type": "function"
    },
    {
      "inputs": [],
      "name": "renounceOwnership",
      "outputs": [],
      "stateMutability": "nonpayable",
      "type": "function"
    },
    {
      "inputs": [
        {
          "internalType": "address",
          "name": "from",
          "type": "address"
        },
        {
          "internalType": "address",
          "name": "to",
          "type": "address"
        },
        {
          "internalType": "uint256",
          "name": "tokenId",
          "type": "uint256"
        }
      ],
      "name": "safeTransferFrom",
      "outputs": [],
      "stateMutability": "nonpayable",
      "type": "function"
    },
    {
      "inputs": [
        {
          "internalType": "address",
          "name": "from",
          "type": "address"
        },
        {
          "internalType": "address",
          "name": "to",
          "type": "address"
        },
        {
          "internalType": "uint256",
          "name": "tokenId",
          "type": "uint256"
        },
        {
          "internalType": "bytes",
          "name": "_data",
          "type": "bytes"
        }
      ],
      "name": "safeTransferFrom",
      "outputs": [],
      "stateMutability": "nonpayable",
      "type": "function"
    },
    {
      "inputs": [
        {
          "internalType": "address",
          "name": "operator",
          "type": "address"
        },
        {
          "internalType": "bool",
          "name": "approved",
          "type": "bool"
        }
      ],
      "name": "setApprovalForAll",
      "outputs": [],
      "stateMutability": "nonpayable",
      "type": "function"
    },
    {
      "inputs": [
        {
          "internalType": "bytes4",
          "name": "interfaceId",
          "type": "bytes4"
        }
      ],
      "name": "supportsInterface",
      "outputs": [
        {
          "internalType": "bool",
          "name": "",
          "type": "bool"
        }
      ],
      "stateMutability": "view",
      "type": "function"
    },
    {
      "inputs": [],
      "name": "symbol",
      "outputs": [
        {
          "internalType": "string",
          "name": "",
          "type": "string"
        }
      ],
      "stateMutability": "view",
      "type": "function"
    },
    {
      "inputs": [
        {
          "internalType": "uint256",
          "name": "tokenId",
          "type": "uint256"
        }
      ],
      "name": "tokenURI",
      "outputs": [
        {
          "internalType": "string",
          "name": "",
          "type": "string"
        }
      ],
      "stateMutability": "view",
      "type": "function"
    },
    {
      "inputs": [],
      "name": "totalMinted",
      "outputs": [
        {
          "internalType": "uint256",
          "name": "_value",
          "type": "uint256"
        }
      ],
      "stateMutability": "view",
      "type": "function"
    },
    {
      "inputs": [],
      "name": "totalSupply",
      "outputs": [
        {
          "internalType": "uint256",
          "name": "_value",
          "type": "uint256"
        }
      ],
      "stateMutability": "view",
      "type": "function"
    },
    {
      "inputs": [
        {
          "internalType": "address",
          "name": "from",
          "type": "address"
        },
        {
          "internalType": "address",
          "name": "to",
          "type": "address"
        },
        {
          "internalType": "uint256",
          "name": "tokenId",
          "type": "uint256"
        }
      ],
      "name": "transferFrom",
      "outputs": [],
      "stateMutability": "nonpayable",
      "type": "function"
    },
    {
      "inputs": [
        {
          "internalType": "address",
          "name": "newOwner",
          "type": "address"
        }
      ],
      "name": "transferOwnership",
      "outputs": [],
      "stateMutability": "nonpayable",
      "type": "function"
    }
  ],
  "bytecode": "0x60806040523480156200001157600080fd5b506040518060400160405280600c81526020017f43727970746f43686172747300000000000000000000000000000000000000008152506040518060400160405280600281526020017f4343000000000000000000000000000000000000000000000000000000000000815250816000908051906020019062000096929190620001a6565b508060019080519060200190620000af929190620001a6565b505050620000d2620000c6620000d860201b60201c565b620000e060201b60201c565b620002bb565b600033905090565b6000600760009054906101000a900473ffffffffffffffffffffffffffffffffffffffff16905081600760006101000a81548173ffffffffffffffffffffffffffffffffffffffff021916908373ffffffffffffffffffffffffffffffffffffffff1602179055508173ffffffffffffffffffffffffffffffffffffffff168173ffffffffffffffffffffffffffffffffffffffff167f8be0079c531659141344cd1fd0a4f28419497f9722a3daafe3b4186f6b6457e060405160405180910390a35050565b828054620001b49062000256565b90600052602060002090601f016020900481019282620001d8576000855562000224565b82601f10620001f357805160ff191683800117855562000224565b8280016001018555821562000224579182015b828111156200022357825182559160200191906001019062000206565b5b50905062000233919062000237565b5090565b5b808211156200025257600081600090555060010162000238565b5090565b600060028204905060018216806200026f57607f821691505b602082108114156200028657620002856200028c565b5b50919050565b7f4e487b7100000000000000000000000000000000000000000000000000000000600052602260045260246000fd5b6133ad80620002cb6000396000f3fe608060405234801561001057600080fd5b50600436106101375760003560e01c806370a08231116100b8578063a2309ff81161007c578063a2309ff81461033a578063b570fce714610358578063b88d4fde14610374578063c87b56dd14610390578063e985e9c5146103c0578063f2fde38b146103f057610137565b806370a08231146102a8578063715018a6146102d85780638da5cb5b146102e257806395d89b4114610300578063a22cb4651461031e57610137565b80631af9db4f116100ff5780631af9db4f146101f457806323b872dd146102245780632da0235a1461024057806342842e0e1461025c5780636352211e1461027857610137565b806301ffc9a71461013c57806306fdde031461016c578063081812fc1461018a578063095ea7b3146101ba57806318160ddd146101d6575b600080fd5b6101566004803603810190610151919061222f565b61040c565b604051610163919061271c565b60405180910390f35b6101746104ee565b6040516101819190612737565b60405180910390f35b6101a4600480360381019061019f91906122d2565b610580565b6040516101b1919061268c565b60405180910390f35b6101d460048036038101906101cf91906121ef565b610605565b005b6101de61071d565b6040516101eb91906129b9565b60405180910390f35b61020e600480360381019061020991906122d2565b610729565b60405161021b9190612737565b60405180910390f35b61023e600480360381019061023991906120d9565b6107d5565b005b61025a600480360381019061025591906122d2565b610835565b005b610276600480360381019061027191906120d9565b610980565b005b610292600480360381019061028d91906122d2565b6109a0565b60405161029f919061268c565b60405180910390f35b6102c260048036038101906102bd919061206c565b610a52565b6040516102cf91906129b9565b60405180910390f35b6102e0610b0a565b005b6102ea610b92565b6040516102f7919061268c565b60405180910390f35b610308610bbc565b6040516103159190612737565b60405180910390f35b610338600480360381019061033391906121af565b610c4e565b005b610342610dcf565b60405161034f91906129b9565b60405180910390f35b610372600480360381019061036d9190612289565b610ddb565b005b61038e6004803603810190610389919061212c565b610ea0565b005b6103aa60048036038101906103a591906122d2565b610f02565b6040516103b79190612737565b60405180910390f35b6103da60048036038101906103d59190612099565b611054565b6040516103e7919061271c565b60405180910390f35b61040a6004803603810190610405919061206c565b6110e8565b005b60007f80ac58cd000000000000000000000000000000000000000000000000000000007bffffffffffffffffffffffffffffffffffffffffffffffffffffffff1916827bffffffffffffffffffffffffffffffffffffffffffffffffffffffff191614806104d757507f5b5e139f000000000000000000000000000000000000000000000000000000007bffffffffffffffffffffffffffffffffffffffffffffffffffffffff1916827bffffffffffffffffffffffffffffffffffffffffffffffffffffffff1916145b806104e757506104e6826111e0565b5b9050919050565b6060600080546104fd90612c0f565b80601f016020809104026020016040519081016040528092919081815260200182805461052990612c0f565b80156105765780601f1061054b57610100808354040283529160200191610576565b820191906000526020600020905b81548152906001019060200180831161055957829003601f168201915b5050505050905090565b600061058b8261124a565b6105ca576040517f08c379a00000000000000000000000000000000000000000000000000000000081526004016105c1906128d9565b60405180910390fd5b6004600083815260200190815260200160002060009054906101000a900473ffffffffffffffffffffffffffffffffffffffff169050919050565b6000610610826109a0565b90508073ffffffffffffffffffffffffffffffffffffffff168373ffffffffffffffffffffffffffffffffffffffff161415610681576040517f08c379a000000000000000000000000000000000000000000000000000000000815260040161067890612959565b60405180910390fd5b8073ffffffffffffffffffffffffffffffffffffffff166106a06112b6565b73ffffffffffffffffffffffffffffffffffffffff1614806106cf57506106ce816106c96112b6565b611054565b5b61070e576040517f08c379a000000000000000000000000000000000000000000000000000000000815260040161070590612819565b60405180910390fd5b61071883836112be565b505050565b60098060000154905081565b600a818154811061073957600080fd5b90600052602060002001600091509050805461075490612c0f565b80601f016020809104026020016040519081016040528092919081815260200182805461078090612c0f565b80156107cd5780601f106107a2576101008083540402835291602001916107cd565b820191906000526020600020905b8154815290600101906020018083116107b057829003601f168201915b505050505081565b6107e66107e06112b6565b82611377565b610825576040517f08c379a000000000000000000000000000000000000000000000000000000000815260040161081c90612999565b60405180910390fd5b610830838383611455565b505050565b61083f60096116b1565b8110610880576040517f08c379a000000000000000000000000000000000000000000000000000000000815260040161087790612979565b60405180910390fd5b61088a33826116bf565b61093a81600a83815481106108a2576108a1612d79565b5b9060005260206000200180546108b790612c0f565b80601f01602080910402602001604051908101604052809291908181526020018280546108e390612c0f565b80156109305780601f1061090557610100808354040283529160200191610930565b820191906000526020600020905b81548152906001019060200180831161091357829003601f168201915b50505050506116dd565b7fbeab306dd84df424639921583f565709b429827fefd279728e8515deb66f40f7338260405161096b9291906126f3565b60405180910390a161097d6008611751565b50565b61099b83838360405180602001604052806000815250610ea0565b505050565b6000806002600084815260200190815260200160002060009054906101000a900473ffffffffffffffffffffffffffffffffffffffff169050600073ffffffffffffffffffffffffffffffffffffffff168173ffffffffffffffffffffffffffffffffffffffff161415610a49576040517f08c379a0000000000000000000000000000000000000000000000000000000008152600401610a4090612859565b60405180910390fd5b80915050919050565b60008073ffffffffffffffffffffffffffffffffffffffff168273ffffffffffffffffffffffffffffffffffffffff161415610ac3576040517f08c379a0000000000000000000000000000000000000000000000000000000008152600401610aba90612839565b60405180910390fd5b600360008373ffffffffffffffffffffffffffffffffffffffff1673ffffffffffffffffffffffffffffffffffffffff168152602001908152602001600020549050919050565b610b126112b6565b73ffffffffffffffffffffffffffffffffffffffff16610b30610b92565b73ffffffffffffffffffffffffffffffffffffffff1614610b86576040517f08c379a0000000000000000000000000000000000000000000000000000000008152600401610b7d906128f9565b60405180910390fd5b610b906000611767565b565b6000600760009054906101000a900473ffffffffffffffffffffffffffffffffffffffff16905090565b606060018054610bcb90612c0f565b80601f0160208091040260200160405190810160405280929190818152602001828054610bf790612c0f565b8015610c445780601f10610c1957610100808354040283529160200191610c44565b820191906000526020600020905b815481529060010190602001808311610c2757829003601f168201915b5050505050905090565b610c566112b6565b73ffffffffffffffffffffffffffffffffffffffff168273ffffffffffffffffffffffffffffffffffffffff161415610cc4576040517f08c379a0000000000000000000000000000000000000000000000000000000008152600401610cbb906127d9565b60405180910390fd5b8060056000610cd16112b6565b73ffffffffffffffffffffffffffffffffffffffff1673ffffffffffffffffffffffffffffffffffffffff16815260200190815260200160002060008473ffffffffffffffffffffffffffffffffffffffff1673ffffffffffffffffffffffffffffffffffffffff16815260200190815260200160002060006101000a81548160ff0219169083151502179055508173ffffffffffffffffffffffffffffffffffffffff16610d7e6112b6565b73ffffffffffffffffffffffffffffffffffffffff167f17307eab39ab6107e8899845ad3d59bd9653f200f220920489ca2b5937696c3183604051610dc3919061271c565b60405180910390a35050565b60088060000154905081565b610de36112b6565b73ffffffffffffffffffffffffffffffffffffffff16610e01610b92565b73ffffffffffffffffffffffffffffffffffffffff1614610e57576040517f08c379a0000000000000000000000000000000000000000000000000000000008152600401610e4e906128f9565b60405180910390fd5b600a81908060018154018082558091505060019003906000526020600020016000909190919091509080519060200190610e92929190611e80565b50610e9d6009611751565b50565b610eb1610eab6112b6565b83611377565b610ef0576040517f08c379a0000000000000000000000000000000000000000000000000000000008152600401610ee790612999565b60405180910390fd5b610efc8484848461182d565b50505050565b6060610f0d8261124a565b610f4c576040517f08c379a0000000000000000000000000000000000000000000000000000000008152600401610f43906128b9565b60405180910390fd5b6000600660008481526020019081526020016000208054610f6c90612c0f565b80601f0160208091040260200160405190810160405280929190818152602001828054610f9890612c0f565b8015610fe55780601f10610fba57610100808354040283529160200191610fe5565b820191906000526020600020905b815481529060010190602001808311610fc857829003601f168201915b505050505090506000610ff6611889565b905060008151141561100c57819250505061104f565b600082511115611041578082604051602001611029929190612668565b6040516020818303038152906040529250505061104f565b61104a846118a0565b925050505b919050565b6000600560008473ffffffffffffffffffffffffffffffffffffffff1673ffffffffffffffffffffffffffffffffffffffff16815260200190815260200160002060008373ffffffffffffffffffffffffffffffffffffffff1673ffffffffffffffffffffffffffffffffffffffff16815260200190815260200160002060009054906101000a900460ff16905092915050565b6110f06112b6565b73ffffffffffffffffffffffffffffffffffffffff1661110e610b92565b73ffffffffffffffffffffffffffffffffffffffff1614611164576040517f08c379a000000000000000000000000000000000000000000000000000000000815260040161115b906128f9565b60405180910390fd5b600073ffffffffffffffffffffffffffffffffffffffff168173ffffffffffffffffffffffffffffffffffffffff1614156111d4576040517f08c379a00000000000000000000000000000000000000000000000000000000081526004016111cb90612779565b60405180910390fd5b6111dd81611767565b50565b60007f01ffc9a7000000000000000000000000000000000000000000000000000000007bffffffffffffffffffffffffffffffffffffffffffffffffffffffff1916827bffffffffffffffffffffffffffffffffffffffffffffffffffffffff1916149050919050565b60008073ffffffffffffffffffffffffffffffffffffffff166002600084815260200190815260200160002060009054906101000a900473ffffffffffffffffffffffffffffffffffffffff1673ffffffffffffffffffffffffffffffffffffffff1614159050919050565b600033905090565b816004600083815260200190815260200160002060006101000a81548173ffffffffffffffffffffffffffffffffffffffff021916908373ffffffffffffffffffffffffffffffffffffffff160217905550808273ffffffffffffffffffffffffffffffffffffffff16611331836109a0565b73ffffffffffffffffffffffffffffffffffffffff167f8c5be1e5ebec7d5bd14f71427d1e84f3dd0314c0f7b2291e5b200ac8c7c3b92560405160405180910390a45050565b60006113828261124a565b6113c1576040517f08c379a00000000000000000000000000000000000000000000000000000000081526004016113b8906127f9565b60405180910390fd5b60006113cc836109a0565b90508073ffffffffffffffffffffffffffffffffffffffff168473ffffffffffffffffffffffffffffffffffffffff16148061143b57508373ffffffffffffffffffffffffffffffffffffffff1661142384610580565b73ffffffffffffffffffffffffffffffffffffffff16145b8061144c575061144b8185611054565b5b91505092915050565b8273ffffffffffffffffffffffffffffffffffffffff16611475826109a0565b73ffffffffffffffffffffffffffffffffffffffff16146114cb576040517f08c379a00000000000000000000000000000000000000000000000000000000081526004016114c290612919565b60405180910390fd5b600073ffffffffffffffffffffffffffffffffffffffff168273ffffffffffffffffffffffffffffffffffffffff16141561153b576040517f08c379a0000000000000000000000000000000000000000000000000000000008152600401611532906127b9565b60405180910390fd5b611546838383611947565b6115516000826112be565b6001600360008573ffffffffffffffffffffffffffffffffffffffff1673ffffffffffffffffffffffffffffffffffffffff16815260200190815260200160002060008282546115a19190612b25565b925050819055506001600360008473ffffffffffffffffffffffffffffffffffffffff1673ffffffffffffffffffffffffffffffffffffffff16815260200190815260200160002060008282546115f89190612a9e565b92505081905550816002600083815260200190815260200160002060006101000a81548173ffffffffffffffffffffffffffffffffffffffff021916908373ffffffffffffffffffffffffffffffffffffffff160217905550808273ffffffffffffffffffffffffffffffffffffffff168473ffffffffffffffffffffffffffffffffffffffff167fddf252ad1be2c89b69c2b068fc378daa952ba7f163c4a11628f55a4df523b3ef60405160405180910390a4505050565b600081600001549050919050565b6116d982826040518060200160405280600081525061194c565b5050565b6116e68261124a565b611725576040517f08c379a000000000000000000000000000000000000000000000000000000000815260040161171c90612879565b60405180910390fd5b8060066000848152602001908152602001600020908051906020019061174c929190611e80565b505050565b6001816000016000828254019250508190555050565b6000600760009054906101000a900473ffffffffffffffffffffffffffffffffffffffff16905081600760006101000a81548173ffffffffffffffffffffffffffffffffffffffff021916908373ffffffffffffffffffffffffffffffffffffffff1602179055508173ffffffffffffffffffffffffffffffffffffffff168173ffffffffffffffffffffffffffffffffffffffff167f8be0079c531659141344cd1fd0a4f28419497f9722a3daafe3b4186f6b6457e060405160405180910390a35050565b611838848484611455565b611844848484846119a7565b611883576040517f08c379a000000000000000000000000000000000000000000000000000000000815260040161187a90612759565b60405180910390fd5b50505050565b606060405180602001604052806000815250905090565b60606118ab8261124a565b6118ea576040517f08c379a00000000000000000000000000000000000000000000000000000000081526004016118e190612939565b60405180910390fd5b60006118f4611889565b90506000815111611914576040518060200160405280600081525061193f565b8061191e84611b3e565b60405160200161192f929190612668565b6040516020818303038152906040525b915050919050565b505050565b6119568383611c9f565b61196360008484846119a7565b6119a2576040517f08c379a000000000000000000000000000000000000000000000000000000000815260040161199990612759565b60405180910390fd5b505050565b60006119c88473ffffffffffffffffffffffffffffffffffffffff16611e6d565b15611b31578373ffffffffffffffffffffffffffffffffffffffff1663150b7a026119f16112b6565b8786866040518563ffffffff1660e01b8152600401611a1394939291906126a7565b602060405180830381600087803b158015611a2d57600080fd5b505af1925050508015611a5e57506040513d601f19601f82011682018060405250810190611a5b919061225c565b60015b611ae1573d8060008114611a8e576040519150601f19603f3d011682016040523d82523d6000602084013e611a93565b606091505b50600081511415611ad9576040517f08c379a0000000000000000000000000000000000000000000000000000000008152600401611ad090612759565b60405180910390fd5b805181602001fd5b63150b7a0260e01b7bffffffffffffffffffffffffffffffffffffffffffffffffffffffff1916817bffffffffffffffffffffffffffffffffffffffffffffffffffffffff191614915050611b36565b600190505b949350505050565b60606000821415611b86576040518060400160405280600181526020017f30000000000000000000000000000000000000000000000000000000000000008152509050611c9a565b600082905060005b60008214611bb8578080611ba190612c72565b915050600a82611bb19190612af4565b9150611b8e565b60008167ffffffffffffffff811115611bd457611bd3612da8565b5b6040519080825280601f01601f191660200182016040528015611c065781602001600182028036833780820191505090505b5090505b60008514611c9357600182611c1f9190612b25565b9150600a85611c2e9190612cbb565b6030611c3a9190612a9e565b60f81b818381518110611c5057611c4f612d79565b5b60200101907effffffffffffffffffffffffffffffffffffffffffffffffffffffffffffff1916908160001a905350600a85611c8c9190612af4565b9450611c0a565b8093505050505b919050565b600073ffffffffffffffffffffffffffffffffffffffff168273ffffffffffffffffffffffffffffffffffffffff161415611d0f576040517f08c379a0000000000000000000000000000000000000000000000000000000008152600401611d0690612899565b60405180910390fd5b611d188161124a565b15611d58576040517f08c379a0000000000000000000000000000000000000000000000000000000008152600401611d4f90612799565b60405180910390fd5b611d6460008383611947565b6001600360008473ffffffffffffffffffffffffffffffffffffffff1673ffffffffffffffffffffffffffffffffffffffff1681526020019081526020016000206000828254611db49190612a9e565b92505081905550816002600083815260200190815260200160002060006101000a81548173ffffffffffffffffffffffffffffffffffffffff021916908373ffffffffffffffffffffffffffffffffffffffff160217905550808273ffffffffffffffffffffffffffffffffffffffff16600073ffffffffffffffffffffffffffffffffffffffff167fddf252ad1be2c89b69c2b068fc378daa952ba7f163c4a11628f55a4df523b3ef60405160405180910390a45050565b600080823b905060008111915050919050565b828054611e8c90612c0f565b90600052602060002090601f016020900481019282611eae5760008555611ef5565b82601f10611ec757805160ff1916838001178555611ef5565b82800160010185558215611ef5579182015b82811115611ef4578251825591602001919060010190611ed9565b5b509050611f029190611f06565b5090565b5b80821115611f1f576000816000905550600101611f07565b5090565b6000611f36611f31846129f9565b6129d4565b905082815260208101848484011115611f5257611f51612ddc565b5b611f5d848285612bcd565b509392505050565b6000611f78611f7384612a2a565b6129d4565b905082815260208101848484011115611f9457611f93612ddc565b5b611f9f848285612bcd565b509392505050565b600081359050611fb68161331b565b92915050565b600081359050611fcb81613332565b92915050565b600081359050611fe081613349565b92915050565b600081519050611ff581613349565b92915050565b600082601f8301126120105761200f612dd7565b5b8135612020848260208601611f23565b91505092915050565b600082601f83011261203e5761203d612dd7565b5b813561204e848260208601611f65565b91505092915050565b60008135905061206681613360565b92915050565b60006020828403121561208257612081612de6565b5b600061209084828501611fa7565b91505092915050565b600080604083850312156120b0576120af612de6565b5b60006120be85828601611fa7565b92505060206120cf85828601611fa7565b9150509250929050565b6000806000606084860312156120f2576120f1612de6565b5b600061210086828701611fa7565b935050602061211186828701611fa7565b925050604061212286828701612057565b9150509250925092565b6000806000806080858703121561214657612145612de6565b5b600061215487828801611fa7565b945050602061216587828801611fa7565b935050604061217687828801612057565b925050606085013567ffffffffffffffff81111561219757612196612de1565b5b6121a387828801611ffb565b91505092959194509250565b600080604083850312156121c6576121c5612de6565b5b60006121d485828601611fa7565b92505060206121e585828601611fbc565b9150509250929050565b6000806040838503121561220657612205612de6565b5b600061221485828601611fa7565b925050602061222585828601612057565b9150509250929050565b60006020828403121561224557612244612de6565b5b600061225384828501611fd1565b91505092915050565b60006020828403121561227257612271612de6565b5b600061228084828501611fe6565b91505092915050565b60006020828403121561229f5761229e612de6565b5b600082013567ffffffffffffffff8111156122bd576122bc612de1565b5b6122c984828501612029565b91505092915050565b6000602082840312156122e8576122e7612de6565b5b60006122f684828501612057565b91505092915050565b61230881612b59565b82525050565b61231781612b6b565b82525050565b600061232882612a5b565b6123328185612a71565b9350612342818560208601612bdc565b61234b81612deb565b840191505092915050565b600061236182612a66565b61236b8185612a82565b935061237b818560208601612bdc565b61238481612deb565b840191505092915050565b600061239a82612a66565b6123a48185612a93565b93506123b4818560208601612bdc565b80840191505092915050565b60006123cd603283612a82565b91506123d882612dfc565b604082019050919050565b60006123f0602683612a82565b91506123fb82612e4b565b604082019050919050565b6000612413601c83612a82565b915061241e82612e9a565b602082019050919050565b6000612436602483612a82565b915061244182612ec3565b604082019050919050565b6000612459601983612a82565b915061246482612f12565b602082019050919050565b600061247c602c83612a82565b915061248782612f3b565b604082019050919050565b600061249f603883612a82565b91506124aa82612f8a565b604082019050919050565b60006124c2602a83612a82565b91506124cd82612fd9565b604082019050919050565b60006124e5602983612a82565b91506124f082613028565b604082019050919050565b6000612508602e83612a82565b915061251382613077565b604082019050919050565b600061252b602083612a82565b9150612536826130c6565b602082019050919050565b600061254e603183612a82565b9150612559826130ef565b604082019050919050565b6000612571602c83612a82565b915061257c8261313e565b604082019050919050565b6000612594602083612a82565b915061259f8261318d565b602082019050919050565b60006125b7602983612a82565b91506125c2826131b6565b604082019050919050565b60006125da602f83612a82565b91506125e582613205565b604082019050919050565b60006125fd602183612a82565b915061260882613254565b604082019050919050565b6000612620601883612a82565b915061262b826132a3565b602082019050919050565b6000612643603183612a82565b915061264e826132cc565b604082019050919050565b61266281612bc3565b82525050565b6000612674828561238f565b9150612680828461238f565b91508190509392505050565b60006020820190506126a160008301846122ff565b92915050565b60006080820190506126bc60008301876122ff565b6126c960208301866122ff565b6126d66040830185612659565b81810360608301526126e8818461231d565b905095945050505050565b600060408201905061270860008301856122ff565b6127156020830184612659565b9392505050565b6000602082019050612731600083018461230e565b92915050565b600060208201905081810360008301526127518184612356565b905092915050565b60006020820190508181036000830152612772816123c0565b9050919050565b60006020820190508181036000830152612792816123e3565b9050919050565b600060208201905081810360008301526127b281612406565b9050919050565b600060208201905081810360008301526127d281612429565b9050919050565b600060208201905081810360008301526127f28161244c565b9050919050565b600060208201905081810360008301526128128161246f565b9050919050565b6000602082019050818103600083015261283281612492565b9050919050565b60006020820190508181036000830152612852816124b5565b9050919050565b60006020820190508181036000830152612872816124d8565b9050919050565b60006020820190508181036000830152612892816124fb565b9050919050565b600060208201905081810360008301526128b28161251e565b9050919050565b600060208201905081810360008301526128d281612541565b9050919050565b600060208201905081810360008301526128f281612564565b9050919050565b6000602082019050818103600083015261291281612587565b9050919050565b60006020820190508181036000830152612932816125aa565b9050919050565b60006020820190508181036000830152612952816125cd565b9050919050565b60006020820190508181036000830152612972816125f0565b9050919050565b6000602082019050818103600083015261299281612613565b9050919050565b600060208201905081810360008301526129b281612636565b9050919050565b60006020820190506129ce6000830184612659565b92915050565b60006129de6129ef565b90506129ea8282612c41565b919050565b6000604051905090565b600067ffffffffffffffff821115612a1457612a13612da8565b5b612a1d82612deb565b9050602081019050919050565b600067ffffffffffffffff821115612a4557612a44612da8565b5b612a4e82612deb565b9050602081019050919050565b600081519050919050565b600081519050919050565b600082825260208201905092915050565b600082825260208201905092915050565b600081905092915050565b6000612aa982612bc3565b9150612ab483612bc3565b9250827fffffffffffffffffffffffffffffffffffffffffffffffffffffffffffffffff03821115612ae957612ae8612cec565b5b828201905092915050565b6000612aff82612bc3565b9150612b0a83612bc3565b925082612b1a57612b19612d1b565b5b828204905092915050565b6000612b3082612bc3565b9150612b3b83612bc3565b925082821015612b4e57612b4d612cec565b5b828203905092915050565b6000612b6482612ba3565b9050919050565b60008115159050919050565b60007fffffffff0000000000000000000000000000000000000000000000000000000082169050919050565b600073ffffffffffffffffffffffffffffffffffffffff82169050919050565b6000819050919050565b82818337600083830152505050565b60005b83811015612bfa578082015181840152602081019050612bdf565b83811115612c09576000848401525b50505050565b60006002820490506001821680612c2757607f821691505b60208210811415612c3b57612c3a612d4a565b5b50919050565b612c4a82612deb565b810181811067ffffffffffffffff82111715612c6957612c68612da8565b5b80604052505050565b6000612c7d82612bc3565b91507fffffffffffffffffffffffffffffffffffffffffffffffffffffffffffffffff821415612cb057612caf612cec565b5b600182019050919050565b6000612cc682612bc3565b9150612cd183612bc3565b925082612ce157612ce0612d1b565b5b828206905092915050565b7f4e487b7100000000000000000000000000000000000000000000000000000000600052601160045260246000fd5b7f4e487b7100000000000000000000000000000000000000000000000000000000600052601260045260246000fd5b7f4e487b7100000000000000000000000000000000000000000000000000000000600052602260045260246000fd5b7f4e487b7100000000000000000000000000000000000000000000000000000000600052603260045260246000fd5b7f4e487b7100000000000000000000000000000000000000000000000000000000600052604160045260246000fd5b600080fd5b600080fd5b600080fd5b600080fd5b6000601f19601f8301169050919050565b7f4552433732313a207472616e7366657220746f206e6f6e20455243373231526560008201527f63656976657220696d706c656d656e7465720000000000000000000000000000602082015250565b7f4f776e61626c653a206e6577206f776e657220697320746865207a65726f206160008201527f6464726573730000000000000000000000000000000000000000000000000000602082015250565b7f4552433732313a20746f6b656e20616c7265616479206d696e74656400000000600082015250565b7f4552433732313a207472616e7366657220746f20746865207a65726f2061646460008201527f7265737300000000000000000000000000000000000000000000000000000000602082015250565b7f4552433732313a20617070726f766520746f2063616c6c657200000000000000600082015250565b7f4552433732313a206f70657261746f7220717565727920666f72206e6f6e657860008201527f697374656e7420746f6b656e0000000000000000000000000000000000000000602082015250565b7f4552433732313a20617070726f76652063616c6c6572206973206e6f74206f7760008201527f6e6572206e6f7220617070726f76656420666f7220616c6c0000000000000000602082015250565b7f4552433732313a2062616c616e636520717565727920666f7220746865207a6560008201527f726f206164647265737300000000000000000000000000000000000000000000602082015250565b7f4552433732313a206f776e657220717565727920666f72206e6f6e657869737460008201527f656e7420746f6b656e0000000000000000000000000000000000000000000000602082015250565b7f45524337323155524953746f726167653a2055524920736574206f66206e6f6e60008201527f6578697374656e7420746f6b656e000000000000000000000000000000000000602082015250565b7f4552433732313a206d696e7420746f20746865207a65726f2061646472657373600082015250565b7f45524337323155524953746f726167653a2055524920717565727920666f722060008201527f6e6f6e6578697374656e7420746f6b656e000000000000000000000000000000602082015250565b7f4552433732313a20617070726f76656420717565727920666f72206e6f6e657860008201527f697374656e7420746f6b656e0000000000000000000000000000000000000000602082015250565b7f4f776e61626c653a2063616c6c6572206973206e6f7420746865206f776e6572600082015250565b7f4552433732313a207472616e73666572206f6620746f6b656e2074686174206960008201527f73206e6f74206f776e0000000000000000000000000000000000000000000000602082015250565b7f4552433732314d657461646174613a2055524920717565727920666f72206e6f60008201527f6e6578697374656e7420746f6b656e0000000000000000000000000000000000602082015250565b7f4552433732313a20617070726f76616c20746f2063757272656e74206f776e6560008201527f7200000000000000000000000000000000000000000000000000000000000000602082015250565b7f546f6b656e204944206973206f7574206f662072616e67650000000000000000600082015250565b7f4552433732313a207472616e736665722063616c6c6572206973206e6f74206f60008201527f776e6572206e6f7220617070726f766564000000000000000000000000000000602082015250565b61332481612b59565b811461332f57600080fd5b50565b61333b81612b6b565b811461334657600080fd5b50565b61335281612b77565b811461335d57600080fd5b50565b61336981612bc3565b811461337457600080fd5b5056fea2646970667358221220024d57fee64d1f97d15c67fee6f15c0bcaad3bca2ae48e85a261c13c17617bd964736f6c63430008070033",
  "linkReferences": {},
  "deployedLinkReferences": {}
}