{
  "_format": "hh-sol-artifact-1",
  "contractName": "CryptoCharts",
  "sourceName": "contracts/CryptoCharts.sol",
  "abi": [
    {
      "inputs": [],
      "stateMutability": "nonpayable",
      "type": "constructor"
    },
    {
      "anonymous": false,
      "inputs": [
        {
          "indexed": true,
          "internalType": "address",
          "name": "owner",
          "type": "address"
        },
        {
          "indexed": true,
          "internalType": "address",
          "name": "approved",
          "type": "address"
        },
        {
          "indexed": true,
          "internalType": "uint256",
          "name": "tokenId",
          "type": "uint256"
        }
      ],
      "name": "Approval",
      "type": "event"
    },
    {
      "anonymous": false,
      "inputs": [
        {
          "indexed": true,
          "internalType": "address",
          "name": "owner",
          "type": "address"
        },
        {
          "indexed": true,
          "internalType": "address",
          "name": "operator",
          "type": "address"
        },
        {
          "indexed": false,
          "internalType": "bool",
          "name": "approved",
          "type": "bool"
        }
      ],
      "name": "ApprovalForAll",
      "type": "event"
    },
    {
      "anonymous": false,
      "inputs": [
        {
          "indexed": false,
          "internalType": "address",
          "name": "sender",
          "type": "address"
        },
        {
          "indexed": false,
          "internalType": "uint256",
          "name": "tokenId",
          "type": "uint256"
        }
      ],
      "name": "ChartMinted",
      "type": "event"
    },
    {
      "anonymous": false,
      "inputs": [
        {
          "indexed": true,
          "internalType": "address",
          "name": "previousOwner",
          "type": "address"
        },
        {
          "indexed": true,
          "internalType": "address",
          "name": "newOwner",
          "type": "address"
        }
      ],
      "name": "OwnershipTransferred",
      "type": "event"
    },
    {
      "anonymous": false,
      "inputs": [
        {
          "indexed": true,
          "internalType": "address",
          "name": "from",
          "type": "address"
        },
        {
          "indexed": true,
          "internalType": "address",
          "name": "to",
          "type": "address"
        },
        {
          "indexed": true,
          "internalType": "uint256",
          "name": "tokenId",
          "type": "uint256"
        }
      ],
      "name": "Transfer",
      "type": "event"
    },
    {
      "inputs": [
        {
          "internalType": "string",
          "name": "ipfsLink",
          "type": "string"
        }
      ],
      "name": "addChart",
      "outputs": [],
      "stateMutability": "nonpayable",
      "type": "function"
    },
    {
      "inputs": [
        {
          "internalType": "address",
          "name": "to",
          "type": "address"
        },
        {
          "internalType": "uint256",
          "name": "tokenId",
          "type": "uint256"
        }
      ],
      "name": "approve",
      "outputs": [],
      "stateMutability": "nonpayable",
      "type": "function"
    },
    {
      "inputs": [
        {
          "internalType": "address",
          "name": "owner",
          "type": "address"
        }
      ],
      "name": "balanceOf",
      "outputs": [
        {
          "internalType": "uint256",
          "name": "",
          "type": "uint256"
        }
      ],
      "stateMutability": "view",
      "type": "function"
    },
    {
      "inputs": [
        {
          "internalType": "uint256",
          "name": "tokenId",
          "type": "uint256"
        }
      ],
      "name": "getApproved",
      "outputs": [
        {
          "internalType": "address",
          "name": "",
          "type": "address"
        }
      ],
      "stateMutability": "view",
      "type": "function"
    },
    {
      "inputs": [],
      "name": "getMintedCount",
      "outputs": [
        {
          "internalType": "uint256",
          "name": "",
          "type": "uint256"
        }
      ],
      "stateMutability": "view",
      "type": "function"
    },
    {
      "inputs": [
        {
          "internalType": "uint256",
          "name": "",
          "type": "uint256"
        }
      ],
      "name": "ipfsLinks",
      "outputs": [
        {
          "internalType": "string",
          "name": "",
          "type": "string"
        }
      ],
      "stateMutability": "view",
      "type": "function"
    },
    {
      "inputs": [
        {
          "internalType": "address",
          "name": "owner",
          "type": "address"
        },
        {
          "internalType": "address",
          "name": "operator",
          "type": "address"
        }
      ],
      "name": "isApprovedForAll",
      "outputs": [
        {
          "internalType": "bool",
          "name": "",
          "type": "bool"
        }
      ],
      "stateMutability": "view",
      "type": "function"
    },
    {
      "inputs": [
        {
          "internalType": "uint256",
          "name": "tokenId",
          "type": "uint256"
        }
      ],
      "name": "mintChart",
      "outputs": [],
      "stateMutability": "nonpayable",
      "type": "function"
    },
    {
      "inputs": [],
      "name": "name",
      "outputs": [
        {
          "internalType": "string",
          "name": "",
          "type": "string"
        }
      ],
      "stateMutability": "view",
      "type": "function"
    },
    {
      "inputs": [],
      "name": "owner",
      "outputs": [
        {
          "internalType": "address",
          "name": "",
          "type": "address"
        }
      ],
      "stateMutability": "view",
      "type": "function"
    },
    {
      "inputs": [
        {
          "internalType": "uint256",
          "name": "tokenId",
          "type": "uint256"
        }
      ],
      "name": "ownerOf",
      "outputs": [
        {
          "internalType": "address",
          "name": "",
          "type": "address"
        }
      ],
      "stateMutability": "view",
      "type": "function"
    },
    {
      "inputs": [],
      "name": "renounceOwnership",
      "outputs": [],
      "stateMutability": "nonpayable",
      "type": "function"
    },
    {
      "inputs": [
        {
          "internalType": "address",
          "name": "from",
          "type": "address"
        },
        {
          "internalType": "address",
          "name": "to",
          "type": "address"
        },
        {
          "internalType": "uint256",
          "name": "tokenId",
          "type": "uint256"
        }
      ],
      "name": "safeTransferFrom",
      "outputs": [],
      "stateMutability": "nonpayable",
      "type": "function"
    },
    {
      "inputs": [
        {
          "internalType": "address",
          "name": "from",
          "type": "address"
        },
        {
          "internalType": "address",
          "name": "to",
          "type": "address"
        },
        {
          "internalType": "uint256",
          "name": "tokenId",
          "type": "uint256"
        },
        {
          "internalType": "bytes",
          "name": "_data",
          "type": "bytes"
        }
      ],
      "name": "safeTransferFrom",
      "outputs": [],
      "stateMutability": "nonpayable",
      "type": "function"
    },
    {
      "inputs": [
        {
          "internalType": "address",
          "name": "operator",
          "type": "address"
        },
        {
          "internalType": "bool",
          "name": "approved",
          "type": "bool"
        }
      ],
      "name": "setApprovalForAll",
      "outputs": [],
      "stateMutability": "nonpayable",
      "type": "function"
    },
    {
      "inputs": [
        {
          "internalType": "bytes4",
          "name": "interfaceId",
          "type": "bytes4"
        }
      ],
      "name": "supportsInterface",
      "outputs": [
        {
          "internalType": "bool",
          "name": "",
          "type": "bool"
        }
      ],
      "stateMutability": "view",
      "type": "function"
    },
    {
      "inputs": [],
      "name": "symbol",
      "outputs": [
        {
          "internalType": "string",
          "name": "",
          "type": "string"
        }
      ],
      "stateMutability": "view",
      "type": "function"
    },
    {
      "inputs": [
        {
          "internalType": "uint256",
          "name": "tokenId",
          "type": "uint256"
        }
      ],
      "name": "tokenURI",
      "outputs": [
        {
          "internalType": "string",
          "name": "",
          "type": "string"
        }
      ],
      "stateMutability": "view",
      "type": "function"
    },
    {
      "inputs": [],
      "name": "totalMinted",
      "outputs": [
        {
          "internalType": "uint256",
          "name": "_value",
          "type": "uint256"
        }
      ],
      "stateMutability": "view",
      "type": "function"
    },
    {
      "inputs": [],
      "name": "totalSupply",
      "outputs": [
        {
          "internalType": "uint256",
          "name": "_value",
          "type": "uint256"
        }
      ],
      "stateMutability": "view",
      "type": "function"
    },
    {
      "inputs": [
        {
          "internalType": "address",
          "name": "from",
          "type": "address"
        },
        {
          "internalType": "address",
          "name": "to",
          "type": "address"
        },
        {
          "internalType": "uint256",
          "name": "tokenId",
          "type": "uint256"
        }
      ],
      "name": "transferFrom",
      "outputs": [],
      "stateMutability": "nonpayable",
      "type": "function"
    },
    {
      "inputs": [
        {
          "internalType": "address",
          "name": "newOwner",
          "type": "address"
        }
      ],
      "name": "transferOwnership",
      "outputs": [],
      "stateMutability": "nonpayable",
      "type": "function"
    }
  ],
  "bytecode": "0x60806040523480156200001157600080fd5b506040518060400160405280600c81526020017f43727970746f43686172747300000000000000000000000000000000000000008152506040518060400160405280600281526020017f4343000000000000000000000000000000000000000000000000000000000000815250816000908051906020019062000096929190620001a6565b508060019080519060200190620000af929190620001a6565b505050620000d2620000c6620000d860201b60201c565b620000e060201b60201c565b620002bb565b600033905090565b6000600760009054906101000a900473ffffffffffffffffffffffffffffffffffffffff16905081600760006101000a81548173ffffffffffffffffffffffffffffffffffffffff021916908373ffffffffffffffffffffffffffffffffffffffff1602179055508173ffffffffffffffffffffffffffffffffffffffff168173ffffffffffffffffffffffffffffffffffffffff167f8be0079c531659141344cd1fd0a4f28419497f9722a3daafe3b4186f6b6457e060405160405180910390a35050565b828054620001b49062000256565b90600052602060002090601f016020900481019282620001d8576000855562000224565b82601f10620001f357805160ff191683800117855562000224565b8280016001018555821562000224579182015b828111156200022357825182559160200191906001019062000206565b5b50905062000233919062000237565b5090565b5b808211156200025257600081600090555060010162000238565b5090565b600060028204905060018216806200026f57607f821691505b602082108114156200028657620002856200028c565b5b50919050565b7f4e487b7100000000000000000000000000000000000000000000000000000000600052602260045260246000fd5b6133e780620002cb6000396000f3fe608060405234801561001057600080fd5b50600436106101425760003560e01c8063715018a6116100b8578063b570fce71161007c578063b570fce714610363578063b88d4fde1461037f578063c87b56dd1461039b578063e985e9c5146103cb578063ebc9bd3b146103fb578063f2fde38b1461041957610142565b8063715018a6146102e35780638da5cb5b146102ed57806395d89b411461030b578063a22cb46514610329578063a2309ff81461034557610142565b80631af9db4f1161010a5780631af9db4f146101ff57806323b872dd1461022f5780632da0235a1461024b57806342842e0e146102675780636352211e1461028357806370a08231146102b357610142565b806301ffc9a71461014757806306fdde0314610177578063081812fc14610195578063095ea7b3146101c557806318160ddd146101e1575b600080fd5b610161600480360381019061015c9190612269565b610435565b60405161016e9190612756565b60405180910390f35b61017f610517565b60405161018c9190612771565b60405180910390f35b6101af60048036038101906101aa919061230c565b6105a9565b6040516101bc91906126c6565b60405180910390f35b6101df60048036038101906101da9190612229565b61062e565b005b6101e9610746565b6040516101f691906129f3565b60405180910390f35b6102196004803603810190610214919061230c565b610752565b6040516102269190612771565b60405180910390f35b61024960048036038101906102449190612113565b6107fe565b005b6102656004803603810190610260919061230c565b61085e565b005b610281600480360381019061027c9190612113565b6109a9565b005b61029d6004803603810190610298919061230c565b6109c9565b6040516102aa91906126c6565b60405180910390f35b6102cd60048036038101906102c891906120a6565b610a7b565b6040516102da91906129f3565b60405180910390f35b6102eb610b33565b005b6102f5610bbb565b60405161030291906126c6565b60405180910390f35b610313610be5565b6040516103209190612771565b60405180910390f35b610343600480360381019061033e91906121e9565b610c77565b005b61034d610df8565b60405161035a91906129f3565b60405180910390f35b61037d600480360381019061037891906122c3565b610e04565b005b61039960048036038101906103949190612166565b610ec9565b005b6103b560048036038101906103b0919061230c565b610f2b565b6040516103c29190612771565b60405180910390f35b6103e560048036038101906103e091906120d3565b61107d565b6040516103f29190612756565b60405180910390f35b610403611111565b60405161041091906129f3565b60405180910390f35b610433600480360381019061042e91906120a6565b611122565b005b60007f80ac58cd000000000000000000000000000000000000000000000000000000007bffffffffffffffffffffffffffffffffffffffffffffffffffffffff1916827bffffffffffffffffffffffffffffffffffffffffffffffffffffffff1916148061050057507f5b5e139f000000000000000000000000000000000000000000000000000000007bffffffffffffffffffffffffffffffffffffffffffffffffffffffff1916827bffffffffffffffffffffffffffffffffffffffffffffffffffffffff1916145b80610510575061050f8261121a565b5b9050919050565b60606000805461052690612c49565b80601f016020809104026020016040519081016040528092919081815260200182805461055290612c49565b801561059f5780601f106105745761010080835404028352916020019161059f565b820191906000526020600020905b81548152906001019060200180831161058257829003601f168201915b5050505050905090565b60006105b482611284565b6105f3576040517f08c379a00000000000000000000000000000000000000000000000000000000081526004016105ea90612913565b60405180910390fd5b6004600083815260200190815260200160002060009054906101000a900473ffffffffffffffffffffffffffffffffffffffff169050919050565b6000610639826109c9565b90508073ffffffffffffffffffffffffffffffffffffffff168373ffffffffffffffffffffffffffffffffffffffff1614156106aa576040517f08c379a00000000000000000000000000000000000000000000000000000000081526004016106a190612993565b60405180910390fd5b8073ffffffffffffffffffffffffffffffffffffffff166106c96112f0565b73ffffffffffffffffffffffffffffffffffffffff1614806106f857506106f7816106f26112f0565b61107d565b5b610737576040517f08c379a000000000000000000000000000000000000000000000000000000000815260040161072e90612853565b60405180910390fd5b61074183836112f8565b505050565b60098060000154905081565b600a818154811061076257600080fd5b90600052602060002001600091509050805461077d90612c49565b80601f01602080910402602001604051908101604052809291908181526020018280546107a990612c49565b80156107f65780601f106107cb576101008083540402835291602001916107f6565b820191906000526020600020905b8154815290600101906020018083116107d957829003601f168201915b505050505081565b61080f6108096112f0565b826113b1565b61084e576040517f08c379a0000000000000000000000000000000000000000000000000000000008152600401610845906129d3565b60405180910390fd5b61085983838361148f565b505050565b61086860096116eb565b81106108a9576040517f08c379a00000000000000000000000000000000000000000000000000000000081526004016108a0906129b3565b60405180910390fd5b6108b333826116f9565b61096381600a83815481106108cb576108ca612db3565b5b9060005260206000200180546108e090612c49565b80601f016020809104026020016040519081016040528092919081815260200182805461090c90612c49565b80156109595780601f1061092e57610100808354040283529160200191610959565b820191906000526020600020905b81548152906001019060200180831161093c57829003601f168201915b5050505050611717565b7fbeab306dd84df424639921583f565709b429827fefd279728e8515deb66f40f7338260405161099492919061272d565b60405180910390a16109a6600861178b565b50565b6109c483838360405180602001604052806000815250610ec9565b505050565b6000806002600084815260200190815260200160002060009054906101000a900473ffffffffffffffffffffffffffffffffffffffff169050600073ffffffffffffffffffffffffffffffffffffffff168173ffffffffffffffffffffffffffffffffffffffff161415610a72576040517f08c379a0000000000000000000000000000000000000000000000000000000008152600401610a6990612893565b60405180910390fd5b80915050919050565b60008073ffffffffffffffffffffffffffffffffffffffff168273ffffffffffffffffffffffffffffffffffffffff161415610aec576040517f08c379a0000000000000000000000000000000000000000000000000000000008152600401610ae390612873565b60405180910390fd5b600360008373ffffffffffffffffffffffffffffffffffffffff1673ffffffffffffffffffffffffffffffffffffffff168152602001908152602001600020549050919050565b610b3b6112f0565b73ffffffffffffffffffffffffffffffffffffffff16610b59610bbb565b73ffffffffffffffffffffffffffffffffffffffff1614610baf576040517f08c379a0000000000000000000000000000000000000000000000000000000008152600401610ba690612933565b60405180910390fd5b610bb960006117a1565b565b6000600760009054906101000a900473ffffffffffffffffffffffffffffffffffffffff16905090565b606060018054610bf490612c49565b80601f0160208091040260200160405190810160405280929190818152602001828054610c2090612c49565b8015610c6d5780601f10610c4257610100808354040283529160200191610c6d565b820191906000526020600020905b815481529060010190602001808311610c5057829003601f168201915b5050505050905090565b610c7f6112f0565b73ffffffffffffffffffffffffffffffffffffffff168273ffffffffffffffffffffffffffffffffffffffff161415610ced576040517f08c379a0000000000000000000000000000000000000000000000000000000008152600401610ce490612813565b60405180910390fd5b8060056000610cfa6112f0565b73ffffffffffffffffffffffffffffffffffffffff1673ffffffffffffffffffffffffffffffffffffffff16815260200190815260200160002060008473ffffffffffffffffffffffffffffffffffffffff1673ffffffffffffffffffffffffffffffffffffffff16815260200190815260200160002060006101000a81548160ff0219169083151502179055508173ffffffffffffffffffffffffffffffffffffffff16610da76112f0565b73ffffffffffffffffffffffffffffffffffffffff167f17307eab39ab6107e8899845ad3d59bd9653f200f220920489ca2b5937696c3183604051610dec9190612756565b60405180910390a35050565b60088060000154905081565b610e0c6112f0565b73ffffffffffffffffffffffffffffffffffffffff16610e2a610bbb565b73ffffffffffffffffffffffffffffffffffffffff1614610e80576040517f08c379a0000000000000000000000000000000000000000000000000000000008152600401610e7790612933565b60405180910390fd5b600a81908060018154018082558091505060019003906000526020600020016000909190919091509080519060200190610ebb929190611eba565b50610ec6600961178b565b50565b610eda610ed46112f0565b836113b1565b610f19576040517f08c379a0000000000000000000000000000000000000000000000000000000008152600401610f10906129d3565b60405180910390fd5b610f2584848484611867565b50505050565b6060610f3682611284565b610f75576040517f08c379a0000000000000000000000000000000000000000000000000000000008152600401610f6c906128f3565b60405180910390fd5b6000600660008481526020019081526020016000208054610f9590612c49565b80601f0160208091040260200160405190810160405280929190818152602001828054610fc190612c49565b801561100e5780601f10610fe35761010080835404028352916020019161100e565b820191906000526020600020905b815481529060010190602001808311610ff157829003601f168201915b50505050509050600061101f6118c3565b9050600081511415611035578192505050611078565b60008251111561106a5780826040516020016110529291906126a2565b60405160208183030381529060405292505050611078565b611073846118da565b925050505b919050565b6000600560008473ffffffffffffffffffffffffffffffffffffffff1673ffffffffffffffffffffffffffffffffffffffff16815260200190815260200160002060008373ffffffffffffffffffffffffffffffffffffffff1673ffffffffffffffffffffffffffffffffffffffff16815260200190815260200160002060009054906101000a900460ff16905092915050565b600061111d60086116eb565b905090565b61112a6112f0565b73ffffffffffffffffffffffffffffffffffffffff16611148610bbb565b73ffffffffffffffffffffffffffffffffffffffff161461119e576040517f08c379a000000000000000000000000000000000000000000000000000000000815260040161119590612933565b60405180910390fd5b600073ffffffffffffffffffffffffffffffffffffffff168173ffffffffffffffffffffffffffffffffffffffff16141561120e576040517f08c379a0000000000000000000000000000000000000000000000000000000008152600401611205906127b3565b60405180910390fd5b611217816117a1565b50565b60007f01ffc9a7000000000000000000000000000000000000000000000000000000007bffffffffffffffffffffffffffffffffffffffffffffffffffffffff1916827bffffffffffffffffffffffffffffffffffffffffffffffffffffffff1916149050919050565b60008073ffffffffffffffffffffffffffffffffffffffff166002600084815260200190815260200160002060009054906101000a900473ffffffffffffffffffffffffffffffffffffffff1673ffffffffffffffffffffffffffffffffffffffff1614159050919050565b600033905090565b816004600083815260200190815260200160002060006101000a81548173ffffffffffffffffffffffffffffffffffffffff021916908373ffffffffffffffffffffffffffffffffffffffff160217905550808273ffffffffffffffffffffffffffffffffffffffff1661136b836109c9565b73ffffffffffffffffffffffffffffffffffffffff167f8c5be1e5ebec7d5bd14f71427d1e84f3dd0314c0f7b2291e5b200ac8c7c3b92560405160405180910390a45050565b60006113bc82611284565b6113fb576040517f08c379a00000000000000000000000000000000000000000000000000000000081526004016113f290612833565b60405180910390fd5b6000611406836109c9565b90508073ffffffffffffffffffffffffffffffffffffffff168473ffffffffffffffffffffffffffffffffffffffff16148061147557508373ffffffffffffffffffffffffffffffffffffffff1661145d846105a9565b73ffffffffffffffffffffffffffffffffffffffff16145b806114865750611485818561107d565b5b91505092915050565b8273ffffffffffffffffffffffffffffffffffffffff166114af826109c9565b73ffffffffffffffffffffffffffffffffffffffff1614611505576040517f08c379a00000000000000000000000000000000000000000000000000000000081526004016114fc90612953565b60405180910390fd5b600073ffffffffffffffffffffffffffffffffffffffff168273ffffffffffffffffffffffffffffffffffffffff161415611575576040517f08c379a000000000000000000000000000000000000000000000000000000000815260040161156c906127f3565b60405180910390fd5b611580838383611981565b61158b6000826112f8565b6001600360008573ffffffffffffffffffffffffffffffffffffffff1673ffffffffffffffffffffffffffffffffffffffff16815260200190815260200160002060008282546115db9190612b5f565b925050819055506001600360008473ffffffffffffffffffffffffffffffffffffffff1673ffffffffffffffffffffffffffffffffffffffff16815260200190815260200160002060008282546116329190612ad8565b92505081905550816002600083815260200190815260200160002060006101000a81548173ffffffffffffffffffffffffffffffffffffffff021916908373ffffffffffffffffffffffffffffffffffffffff160217905550808273ffffffffffffffffffffffffffffffffffffffff168473ffffffffffffffffffffffffffffffffffffffff167fddf252ad1be2c89b69c2b068fc378daa952ba7f163c4a11628f55a4df523b3ef60405160405180910390a4505050565b600081600001549050919050565b611713828260405180602001604052806000815250611986565b5050565b61172082611284565b61175f576040517f08c379a0000000000000000000000000000000000000000000000000000000008152600401611756906128b3565b60405180910390fd5b80600660008481526020019081526020016000209080519060200190611786929190611eba565b505050565b6001816000016000828254019250508190555050565b6000600760009054906101000a900473ffffffffffffffffffffffffffffffffffffffff16905081600760006101000a81548173ffffffffffffffffffffffffffffffffffffffff021916908373ffffffffffffffffffffffffffffffffffffffff1602179055508173ffffffffffffffffffffffffffffffffffffffff168173ffffffffffffffffffffffffffffffffffffffff167f8be0079c531659141344cd1fd0a4f28419497f9722a3daafe3b4186f6b6457e060405160405180910390a35050565b61187284848461148f565b61187e848484846119e1565b6118bd576040517f08c379a00000000000000000000000000000000000000000000000000000000081526004016118b490612793565b60405180910390fd5b50505050565b606060405180602001604052806000815250905090565b60606118e582611284565b611924576040517f08c379a000000000000000000000000000000000000000000000000000000000815260040161191b90612973565b60405180910390fd5b600061192e6118c3565b9050600081511161194e5760405180602001604052806000815250611979565b8061195884611b78565b6040516020016119699291906126a2565b6040516020818303038152906040525b915050919050565b505050565b6119908383611cd9565b61199d60008484846119e1565b6119dc576040517f08c379a00000000000000000000000000000000000000000000000000000000081526004016119d390612793565b60405180910390fd5b505050565b6000611a028473ffffffffffffffffffffffffffffffffffffffff16611ea7565b15611b6b578373ffffffffffffffffffffffffffffffffffffffff1663150b7a02611a2b6112f0565b8786866040518563ffffffff1660e01b8152600401611a4d94939291906126e1565b602060405180830381600087803b158015611a6757600080fd5b505af1925050508015611a9857506040513d601f19601f82011682018060405250810190611a959190612296565b60015b611b1b573d8060008114611ac8576040519150601f19603f3d011682016040523d82523d6000602084013e611acd565b606091505b50600081511415611b13576040517f08c379a0000000000000000000000000000000000000000000000000000000008152600401611b0a90612793565b60405180910390fd5b805181602001fd5b63150b7a0260e01b7bffffffffffffffffffffffffffffffffffffffffffffffffffffffff1916817bffffffffffffffffffffffffffffffffffffffffffffffffffffffff191614915050611b70565b600190505b949350505050565b60606000821415611bc0576040518060400160405280600181526020017f30000000000000000000000000000000000000000000000000000000000000008152509050611cd4565b600082905060005b60008214611bf2578080611bdb90612cac565b915050600a82611beb9190612b2e565b9150611bc8565b60008167ffffffffffffffff811115611c0e57611c0d612de2565b5b6040519080825280601f01601f191660200182016040528015611c405781602001600182028036833780820191505090505b5090505b60008514611ccd57600182611c599190612b5f565b9150600a85611c689190612cf5565b6030611c749190612ad8565b60f81b818381518110611c8a57611c89612db3565b5b60200101907effffffffffffffffffffffffffffffffffffffffffffffffffffffffffffff1916908160001a905350600a85611cc69190612b2e565b9450611c44565b8093505050505b919050565b600073ffffffffffffffffffffffffffffffffffffffff168273ffffffffffffffffffffffffffffffffffffffff161415611d49576040517f08c379a0000000000000000000000000000000000000000000000000000000008152600401611d40906128d3565b60405180910390fd5b611d5281611284565b15611d92576040517f08c379a0000000000000000000000000000000000000000000000000000000008152600401611d89906127d3565b60405180910390fd5b611d9e60008383611981565b6001600360008473ffffffffffffffffffffffffffffffffffffffff1673ffffffffffffffffffffffffffffffffffffffff1681526020019081526020016000206000828254611dee9190612ad8565b92505081905550816002600083815260200190815260200160002060006101000a81548173ffffffffffffffffffffffffffffffffffffffff021916908373ffffffffffffffffffffffffffffffffffffffff160217905550808273ffffffffffffffffffffffffffffffffffffffff16600073ffffffffffffffffffffffffffffffffffffffff167fddf252ad1be2c89b69c2b068fc378daa952ba7f163c4a11628f55a4df523b3ef60405160405180910390a45050565b600080823b905060008111915050919050565b828054611ec690612c49565b90600052602060002090601f016020900481019282611ee85760008555611f2f565b82601f10611f0157805160ff1916838001178555611f2f565b82800160010185558215611f2f579182015b82811115611f2e578251825591602001919060010190611f13565b5b509050611f3c9190611f40565b5090565b5b80821115611f59576000816000905550600101611f41565b5090565b6000611f70611f6b84612a33565b612a0e565b905082815260208101848484011115611f8c57611f8b612e16565b5b611f97848285612c07565b509392505050565b6000611fb2611fad84612a64565b612a0e565b905082815260208101848484011115611fce57611fcd612e16565b5b611fd9848285612c07565b509392505050565b600081359050611ff081613355565b92915050565b6000813590506120058161336c565b92915050565b60008135905061201a81613383565b92915050565b60008151905061202f81613383565b92915050565b600082601f83011261204a57612049612e11565b5b813561205a848260208601611f5d565b91505092915050565b600082601f83011261207857612077612e11565b5b8135612088848260208601611f9f565b91505092915050565b6000813590506120a08161339a565b92915050565b6000602082840312156120bc576120bb612e20565b5b60006120ca84828501611fe1565b91505092915050565b600080604083850312156120ea576120e9612e20565b5b60006120f885828601611fe1565b925050602061210985828601611fe1565b9150509250929050565b60008060006060848603121561212c5761212b612e20565b5b600061213a86828701611fe1565b935050602061214b86828701611fe1565b925050604061215c86828701612091565b9150509250925092565b600080600080608085870312156121805761217f612e20565b5b600061218e87828801611fe1565b945050602061219f87828801611fe1565b93505060406121b087828801612091565b925050606085013567ffffffffffffffff8111156121d1576121d0612e1b565b5b6121dd87828801612035565b91505092959194509250565b60008060408385031215612200576121ff612e20565b5b600061220e85828601611fe1565b925050602061221f85828601611ff6565b9150509250929050565b600080604083850312156122405761223f612e20565b5b600061224e85828601611fe1565b925050602061225f85828601612091565b9150509250929050565b60006020828403121561227f5761227e612e20565b5b600061228d8482850161200b565b91505092915050565b6000602082840312156122ac576122ab612e20565b5b60006122ba84828501612020565b91505092915050565b6000602082840312156122d9576122d8612e20565b5b600082013567ffffffffffffffff8111156122f7576122f6612e1b565b5b61230384828501612063565b91505092915050565b60006020828403121561232257612321612e20565b5b600061233084828501612091565b91505092915050565b61234281612b93565b82525050565b61235181612ba5565b82525050565b600061236282612a95565b61236c8185612aab565b935061237c818560208601612c16565b61238581612e25565b840191505092915050565b600061239b82612aa0565b6123a58185612abc565b93506123b5818560208601612c16565b6123be81612e25565b840191505092915050565b60006123d482612aa0565b6123de8185612acd565b93506123ee818560208601612c16565b80840191505092915050565b6000612407603283612abc565b915061241282612e36565b604082019050919050565b600061242a602683612abc565b915061243582612e85565b604082019050919050565b600061244d601c83612abc565b915061245882612ed4565b602082019050919050565b6000612470602483612abc565b915061247b82612efd565b604082019050919050565b6000612493601983612abc565b915061249e82612f4c565b602082019050919050565b60006124b6602c83612abc565b91506124c182612f75565b604082019050919050565b60006124d9603883612abc565b91506124e482612fc4565b604082019050919050565b60006124fc602a83612abc565b915061250782613013565b604082019050919050565b600061251f602983612abc565b915061252a82613062565b604082019050919050565b6000612542602e83612abc565b915061254d826130b1565b604082019050919050565b6000612565602083612abc565b915061257082613100565b602082019050919050565b6000612588603183612abc565b915061259382613129565b604082019050919050565b60006125ab602c83612abc565b91506125b682613178565b604082019050919050565b60006125ce602083612abc565b91506125d9826131c7565b602082019050919050565b60006125f1602983612abc565b91506125fc826131f0565b604082019050919050565b6000612614602f83612abc565b915061261f8261323f565b604082019050919050565b6000612637602183612abc565b91506126428261328e565b604082019050919050565b600061265a601883612abc565b9150612665826132dd565b602082019050919050565b600061267d603183612abc565b915061268882613306565b604082019050919050565b61269c81612bfd565b82525050565b60006126ae82856123c9565b91506126ba82846123c9565b91508190509392505050565b60006020820190506126db6000830184612339565b92915050565b60006080820190506126f66000830187612339565b6127036020830186612339565b6127106040830185612693565b81810360608301526127228184612357565b905095945050505050565b60006040820190506127426000830185612339565b61274f6020830184612693565b9392505050565b600060208201905061276b6000830184612348565b92915050565b6000602082019050818103600083015261278b8184612390565b905092915050565b600060208201905081810360008301526127ac816123fa565b9050919050565b600060208201905081810360008301526127cc8161241d565b9050919050565b600060208201905081810360008301526127ec81612440565b9050919050565b6000602082019050818103600083015261280c81612463565b9050919050565b6000602082019050818103600083015261282c81612486565b9050919050565b6000602082019050818103600083015261284c816124a9565b9050919050565b6000602082019050818103600083015261286c816124cc565b9050919050565b6000602082019050818103600083015261288c816124ef565b9050919050565b600060208201905081810360008301526128ac81612512565b9050919050565b600060208201905081810360008301526128cc81612535565b9050919050565b600060208201905081810360008301526128ec81612558565b9050919050565b6000602082019050818103600083015261290c8161257b565b9050919050565b6000602082019050818103600083015261292c8161259e565b9050919050565b6000602082019050818103600083015261294c816125c1565b9050919050565b6000602082019050818103600083015261296c816125e4565b9050919050565b6000602082019050818103600083015261298c81612607565b9050919050565b600060208201905081810360008301526129ac8161262a565b9050919050565b600060208201905081810360008301526129cc8161264d565b9050919050565b600060208201905081810360008301526129ec81612670565b9050919050565b6000602082019050612a086000830184612693565b92915050565b6000612a18612a29565b9050612a248282612c7b565b919050565b6000604051905090565b600067ffffffffffffffff821115612a4e57612a4d612de2565b5b612a5782612e25565b9050602081019050919050565b600067ffffffffffffffff821115612a7f57612a7e612de2565b5b612a8882612e25565b9050602081019050919050565b600081519050919050565b600081519050919050565b600082825260208201905092915050565b600082825260208201905092915050565b600081905092915050565b6000612ae382612bfd565b9150612aee83612bfd565b9250827fffffffffffffffffffffffffffffffffffffffffffffffffffffffffffffffff03821115612b2357612b22612d26565b5b828201905092915050565b6000612b3982612bfd565b9150612b4483612bfd565b925082612b5457612b53612d55565b5b828204905092915050565b6000612b6a82612bfd565b9150612b7583612bfd565b925082821015612b8857612b87612d26565b5b828203905092915050565b6000612b9e82612bdd565b9050919050565b60008115159050919050565b60007fffffffff0000000000000000000000000000000000000000000000000000000082169050919050565b600073ffffffffffffffffffffffffffffffffffffffff82169050919050565b6000819050919050565b82818337600083830152505050565b60005b83811015612c34578082015181840152602081019050612c19565b83811115612c43576000848401525b50505050565b60006002820490506001821680612c6157607f821691505b60208210811415612c7557612c74612d84565b5b50919050565b612c8482612e25565b810181811067ffffffffffffffff82111715612ca357612ca2612de2565b5b80604052505050565b6000612cb782612bfd565b91507fffffffffffffffffffffffffffffffffffffffffffffffffffffffffffffffff821415612cea57612ce9612d26565b5b600182019050919050565b6000612d0082612bfd565b9150612d0b83612bfd565b925082612d1b57612d1a612d55565b5b828206905092915050565b7f4e487b7100000000000000000000000000000000000000000000000000000000600052601160045260246000fd5b7f4e487b7100000000000000000000000000000000000000000000000000000000600052601260045260246000fd5b7f4e487b7100000000000000000000000000000000000000000000000000000000600052602260045260246000fd5b7f4e487b7100000000000000000000000000000000000000000000000000000000600052603260045260246000fd5b7f4e487b7100000000000000000000000000000000000000000000000000000000600052604160045260246000fd5b600080fd5b600080fd5b600080fd5b600080fd5b6000601f19601f8301169050919050565b7f4552433732313a207472616e7366657220746f206e6f6e20455243373231526560008201527f63656976657220696d706c656d656e7465720000000000000000000000000000602082015250565b7f4f776e61626c653a206e6577206f776e657220697320746865207a65726f206160008201527f6464726573730000000000000000000000000000000000000000000000000000602082015250565b7f4552433732313a20746f6b656e20616c7265616479206d696e74656400000000600082015250565b7f4552433732313a207472616e7366657220746f20746865207a65726f2061646460008201527f7265737300000000000000000000000000000000000000000000000000000000602082015250565b7f4552433732313a20617070726f766520746f2063616c6c657200000000000000600082015250565b7f4552433732313a206f70657261746f7220717565727920666f72206e6f6e657860008201527f697374656e7420746f6b656e0000000000000000000000000000000000000000602082015250565b7f4552433732313a20617070726f76652063616c6c6572206973206e6f74206f7760008201527f6e6572206e6f7220617070726f76656420666f7220616c6c0000000000000000602082015250565b7f4552433732313a2062616c616e636520717565727920666f7220746865207a6560008201527f726f206164647265737300000000000000000000000000000000000000000000602082015250565b7f4552433732313a206f776e657220717565727920666f72206e6f6e657869737460008201527f656e7420746f6b656e0000000000000000000000000000000000000000000000602082015250565b7f45524337323155524953746f726167653a2055524920736574206f66206e6f6e60008201527f6578697374656e7420746f6b656e000000000000000000000000000000000000602082015250565b7f4552433732313a206d696e7420746f20746865207a65726f2061646472657373600082015250565b7f45524337323155524953746f726167653a2055524920717565727920666f722060008201527f6e6f6e6578697374656e7420746f6b656e000000000000000000000000000000602082015250565b7f4552433732313a20617070726f76656420717565727920666f72206e6f6e657860008201527f697374656e7420746f6b656e0000000000000000000000000000000000000000602082015250565b7f4f776e61626c653a2063616c6c6572206973206e6f7420746865206f776e6572600082015250565b7f4552433732313a207472616e73666572206f6620746f6b656e2074686174206960008201527f73206e6f74206f776e0000000000000000000000000000000000000000000000602082015250565b7f4552433732314d657461646174613a2055524920717565727920666f72206e6f60008201527f6e6578697374656e7420746f6b656e0000000000000000000000000000000000602082015250565b7f4552433732313a20617070726f76616c20746f2063757272656e74206f776e6560008201527f7200000000000000000000000000000000000000000000000000000000000000602082015250565b7f546f6b656e204944206973206f7574206f662072616e67650000000000000000600082015250565b7f4552433732313a207472616e736665722063616c6c6572206973206e6f74206f60008201527f776e6572206e6f7220617070726f766564000000000000000000000000000000602082015250565b61335e81612b93565b811461336957600080fd5b50565b61337581612ba5565b811461338057600080fd5b50565b61338c81612bb1565b811461339757600080fd5b50565b6133a381612bfd565b81146133ae57600080fd5b5056fea2646970667358221220907ecc87c1b230a3ddb182a38563f4aec770025ed0feb86383c5e795f454b79564736f6c63430008070033",
  "linkReferences": {},
  "deployedLinkReferences": {}
}