{
  "_format": "hh-sol-artifact-1",
  "contractName": "CryptoCharts",
  "sourceName": "contracts/CryptoCharts.sol",
  "abi": [
    {
      "inputs": [],
      "stateMutability": "nonpayable",
      "type": "constructor"
    },
    {
      "anonymous": false,
      "inputs": [
        {
          "indexed": true,
          "internalType": "address",
          "name": "owner",
          "type": "address"
        },
        {
          "indexed": true,
          "internalType": "address",
          "name": "approved",
          "type": "address"
        },
        {
          "indexed": true,
          "internalType": "uint256",
          "name": "tokenId",
          "type": "uint256"
        }
      ],
      "name": "Approval",
      "type": "event"
    },
    {
      "anonymous": false,
      "inputs": [
        {
          "indexed": true,
          "internalType": "address",
          "name": "owner",
          "type": "address"
        },
        {
          "indexed": true,
          "internalType": "address",
          "name": "operator",
          "type": "address"
        },
        {
          "indexed": false,
          "internalType": "bool",
          "name": "approved",
          "type": "bool"
        }
      ],
      "name": "ApprovalForAll",
      "type": "event"
    },
    {
      "anonymous": false,
      "inputs": [
        {
          "indexed": false,
          "internalType": "address",
          "name": "sender",
          "type": "address"
        },
        {
          "indexed": false,
          "internalType": "uint256",
          "name": "arrayIndex",
          "type": "uint256"
        },
        {
          "indexed": false,
          "internalType": "uint256",
          "name": "mintPosition",
          "type": "uint256"
        }
      ],
      "name": "ChartMinted",
      "type": "event"
    },
    {
      "anonymous": false,
      "inputs": [
        {
          "indexed": true,
          "internalType": "address",
          "name": "previousOwner",
          "type": "address"
        },
        {
          "indexed": true,
          "internalType": "address",
          "name": "newOwner",
          "type": "address"
        }
      ],
      "name": "OwnershipTransferred",
      "type": "event"
    },
    {
      "anonymous": false,
      "inputs": [
        {
          "indexed": true,
          "internalType": "address",
          "name": "from",
          "type": "address"
        },
        {
          "indexed": true,
          "internalType": "address",
          "name": "to",
          "type": "address"
        },
        {
          "indexed": true,
          "internalType": "uint256",
          "name": "tokenId",
          "type": "uint256"
        }
      ],
      "name": "Transfer",
      "type": "event"
    },
    {
      "inputs": [
        {
          "internalType": "uint256",
          "name": "tokenId",
          "type": "uint256"
        },
        {
          "internalType": "string",
          "name": "ipfsLink",
          "type": "string"
        }
      ],
      "name": "addChart",
      "outputs": [],
      "stateMutability": "nonpayable",
      "type": "function"
    },
    {
      "inputs": [
        {
          "internalType": "address",
          "name": "to",
          "type": "address"
        },
        {
          "internalType": "uint256",
          "name": "tokenId",
          "type": "uint256"
        }
      ],
      "name": "approve",
      "outputs": [],
      "stateMutability": "nonpayable",
      "type": "function"
    },
    {
      "inputs": [
        {
          "internalType": "address",
          "name": "owner",
          "type": "address"
        }
      ],
      "name": "balanceOf",
      "outputs": [
        {
          "internalType": "uint256",
          "name": "",
          "type": "uint256"
        }
      ],
      "stateMutability": "view",
      "type": "function"
    },
    {
      "inputs": [
        {
          "internalType": "uint256",
          "name": "tokenId",
          "type": "uint256"
        }
      ],
      "name": "getApproved",
      "outputs": [
        {
          "internalType": "address",
          "name": "",
          "type": "address"
        }
      ],
      "stateMutability": "view",
      "type": "function"
    },
    {
      "inputs": [],
      "name": "getMintedCount",
      "outputs": [
        {
          "internalType": "uint256",
          "name": "",
          "type": "uint256"
        }
      ],
      "stateMutability": "view",
      "type": "function"
    },
    {
      "inputs": [
        {
          "internalType": "address",
          "name": "owner",
          "type": "address"
        },
        {
          "internalType": "address",
          "name": "operator",
          "type": "address"
        }
      ],
      "name": "isApprovedForAll",
      "outputs": [
        {
          "internalType": "bool",
          "name": "",
          "type": "bool"
        }
      ],
      "stateMutability": "view",
      "type": "function"
    },
    {
      "inputs": [
        {
          "internalType": "uint256",
          "name": "tokenId",
          "type": "uint256"
        }
      ],
      "name": "mintChart",
      "outputs": [],
      "stateMutability": "nonpayable",
      "type": "function"
    },
    {
      "inputs": [],
      "name": "name",
      "outputs": [
        {
          "internalType": "string",
          "name": "",
          "type": "string"
        }
      ],
      "stateMutability": "view",
      "type": "function"
    },
    {
      "inputs": [],
      "name": "owner",
      "outputs": [
        {
          "internalType": "address",
          "name": "",
          "type": "address"
        }
      ],
      "stateMutability": "view",
      "type": "function"
    },
    {
      "inputs": [
        {
          "internalType": "uint256",
          "name": "tokenId",
          "type": "uint256"
        }
      ],
      "name": "ownerOf",
      "outputs": [
        {
          "internalType": "address",
          "name": "",
          "type": "address"
        }
      ],
      "stateMutability": "view",
      "type": "function"
    },
    {
      "inputs": [],
      "name": "renounceOwnership",
      "outputs": [],
      "stateMutability": "nonpayable",
      "type": "function"
    },
    {
      "inputs": [
        {
          "internalType": "address",
          "name": "from",
          "type": "address"
        },
        {
          "internalType": "address",
          "name": "to",
          "type": "address"
        },
        {
          "internalType": "uint256",
          "name": "tokenId",
          "type": "uint256"
        }
      ],
      "name": "safeTransferFrom",
      "outputs": [],
      "stateMutability": "nonpayable",
      "type": "function"
    },
    {
      "inputs": [
        {
          "internalType": "address",
          "name": "from",
          "type": "address"
        },
        {
          "internalType": "address",
          "name": "to",
          "type": "address"
        },
        {
          "internalType": "uint256",
          "name": "tokenId",
          "type": "uint256"
        },
        {
          "internalType": "bytes",
          "name": "_data",
          "type": "bytes"
        }
      ],
      "name": "safeTransferFrom",
      "outputs": [],
      "stateMutability": "nonpayable",
      "type": "function"
    },
    {
      "inputs": [
        {
          "internalType": "address",
          "name": "operator",
          "type": "address"
        },
        {
          "internalType": "bool",
          "name": "approved",
          "type": "bool"
        }
      ],
      "name": "setApprovalForAll",
      "outputs": [],
      "stateMutability": "nonpayable",
      "type": "function"
    },
    {
      "inputs": [
        {
          "internalType": "bytes4",
          "name": "interfaceId",
          "type": "bytes4"
        }
      ],
      "name": "supportsInterface",
      "outputs": [
        {
          "internalType": "bool",
          "name": "",
          "type": "bool"
        }
      ],
      "stateMutability": "view",
      "type": "function"
    },
    {
      "inputs": [],
      "name": "symbol",
      "outputs": [
        {
          "internalType": "string",
          "name": "",
          "type": "string"
        }
      ],
      "stateMutability": "view",
      "type": "function"
    },
    {
      "inputs": [
        {
          "internalType": "uint256",
          "name": "",
          "type": "uint256"
        }
      ],
      "name": "tokenIdToIPFS",
      "outputs": [
        {
          "internalType": "string",
          "name": "",
          "type": "string"
        }
      ],
      "stateMutability": "view",
      "type": "function"
    },
    {
      "inputs": [
        {
          "internalType": "uint256",
          "name": "tokenId",
          "type": "uint256"
        }
      ],
      "name": "tokenURI",
      "outputs": [
        {
          "internalType": "string",
          "name": "",
          "type": "string"
        }
      ],
      "stateMutability": "view",
      "type": "function"
    },
    {
      "inputs": [],
      "name": "totalSupply",
      "outputs": [
        {
          "internalType": "uint256",
          "name": "_value",
          "type": "uint256"
        }
      ],
      "stateMutability": "view",
      "type": "function"
    },
    {
      "inputs": [
        {
          "internalType": "address",
          "name": "from",
          "type": "address"
        },
        {
          "internalType": "address",
          "name": "to",
          "type": "address"
        },
        {
          "internalType": "uint256",
          "name": "tokenId",
          "type": "uint256"
        }
      ],
      "name": "transferFrom",
      "outputs": [],
      "stateMutability": "nonpayable",
      "type": "function"
    },
    {
      "inputs": [
        {
          "internalType": "address",
          "name": "newOwner",
          "type": "address"
        }
      ],
      "name": "transferOwnership",
      "outputs": [],
      "stateMutability": "nonpayable",
      "type": "function"
    }
  ],
  "bytecode": "0x60806040523480156200001157600080fd5b506040518060400160405280600c81526020017f43727970746f43686172747300000000000000000000000000000000000000008152506040518060400160405280600281526020017f4343000000000000000000000000000000000000000000000000000000000000815250816000908051906020019062000096929190620001a6565b508060019080519060200190620000af929190620001a6565b505050620000d2620000c6620000d860201b60201c565b620000e060201b60201c565b620002bb565b600033905090565b6000600760009054906101000a900473ffffffffffffffffffffffffffffffffffffffff16905081600760006101000a81548173ffffffffffffffffffffffffffffffffffffffff021916908373ffffffffffffffffffffffffffffffffffffffff1602179055508173ffffffffffffffffffffffffffffffffffffffff168173ffffffffffffffffffffffffffffffffffffffff167f8be0079c531659141344cd1fd0a4f28419497f9722a3daafe3b4186f6b6457e060405160405180910390a35050565b828054620001b49062000256565b90600052602060002090601f016020900481019282620001d8576000855562000224565b82601f10620001f357805160ff191683800117855562000224565b8280016001018555821562000224579182015b828111156200022357825182559160200191906001019062000206565b5b50905062000233919062000237565b5090565b5b808211156200025257600081600090555060010162000238565b5090565b600060028204905060018216806200026f57607f821691505b602082108114156200028657620002856200028c565b5b50919050565b7f4e487b7100000000000000000000000000000000000000000000000000000000600052602260045260246000fd5b6133b480620002cb6000396000f3fe608060405234801561001057600080fd5b50600436106101375760003560e01c80636352211e116100b8578063a22cb4651161007c578063a22cb4651461033a578063b88d4fde14610356578063c87b56dd14610372578063e985e9c5146103a2578063ebc9bd3b146103d2578063f2fde38b146103f057610137565b80636352211e1461029457806370a08231146102c4578063715018a6146102f45780638da5cb5b146102fe57806395d89b411461031c57610137565b806318160ddd116100ff57806318160ddd1461020657806323b872dd146102245780632da0235a146102405780633888c8a81461025c57806342842e0e1461027857610137565b806301ffc9a71461013c57806306fdde031461016c578063081812fc1461018a578063095ea7b3146101ba57806315de1cb6146101d6575b600080fd5b61015660048036038101906101519190612215565b61040c565b6040516101639190612723565b60405180910390f35b6101746104ee565b604051610181919061273e565b60405180910390f35b6101a4600480360381019061019f919061226f565b610580565b6040516101b19190612685565b60405180910390f35b6101d460048036038101906101cf91906121d5565b610605565b005b6101f060048036038101906101eb919061226f565b61071d565b6040516101fd919061273e565b60405180910390f35b61020e6107bd565b60405161021b91906129c0565b60405180910390f35b61023e600480360381019061023991906120bf565b6107c9565b005b61025a6004803603810190610255919061226f565b610829565b005b6102766004803603810190610271919061229c565b610974565b005b610292600480360381019061028d91906120bf565b610a26565b005b6102ae60048036038101906102a9919061226f565b610a46565b6040516102bb9190612685565b60405180910390f35b6102de60048036038101906102d99190612052565b610af8565b6040516102eb91906129c0565b60405180910390f35b6102fc610bb0565b005b610306610c38565b6040516103139190612685565b60405180910390f35b610324610c62565b604051610331919061273e565b60405180910390f35b610354600480360381019061034f9190612195565b610cf4565b005b610370600480360381019061036b9190612112565b610e75565b005b61038c6004803603810190610387919061226f565b610ed7565b604051610399919061273e565b60405180910390f35b6103bc60048036038101906103b7919061207f565b611029565b6040516103c99190612723565b60405180910390f35b6103da6110bd565b6040516103e791906129c0565b60405180910390f35b61040a60048036038101906104059190612052565b6110ce565b005b60007f80ac58cd000000000000000000000000000000000000000000000000000000007bffffffffffffffffffffffffffffffffffffffffffffffffffffffff1916827bffffffffffffffffffffffffffffffffffffffffffffffffffffffff191614806104d757507f5b5e139f000000000000000000000000000000000000000000000000000000007bffffffffffffffffffffffffffffffffffffffffffffffffffffffff1916827bffffffffffffffffffffffffffffffffffffffffffffffffffffffff1916145b806104e757506104e6826111c6565b5b9050919050565b6060600080546104fd90612c16565b80601f016020809104026020016040519081016040528092919081815260200182805461052990612c16565b80156105765780601f1061054b57610100808354040283529160200191610576565b820191906000526020600020905b81548152906001019060200180831161055957829003601f168201915b5050505050905090565b600061058b82611230565b6105ca576040517f08c379a00000000000000000000000000000000000000000000000000000000081526004016105c1906128e0565b60405180910390fd5b6004600083815260200190815260200160002060009054906101000a900473ffffffffffffffffffffffffffffffffffffffff169050919050565b600061061082610a46565b90508073ffffffffffffffffffffffffffffffffffffffff168373ffffffffffffffffffffffffffffffffffffffff161415610681576040517f08c379a000000000000000000000000000000000000000000000000000000000815260040161067890612960565b60405180910390fd5b8073ffffffffffffffffffffffffffffffffffffffff166106a061129c565b73ffffffffffffffffffffffffffffffffffffffff1614806106cf57506106ce816106c961129c565b611029565b5b61070e576040517f08c379a000000000000000000000000000000000000000000000000000000000815260040161070590612820565b60405180910390fd5b61071883836112a4565b505050565b600a602052806000526040600020600091509050805461073c90612c16565b80601f016020809104026020016040519081016040528092919081815260200182805461076890612c16565b80156107b55780601f1061078a576101008083540402835291602001916107b5565b820191906000526020600020905b81548152906001019060200180831161079857829003601f168201915b505050505081565b60098060000154905081565b6107da6107d461129c565b8261135d565b610819576040517f08c379a0000000000000000000000000000000000000000000000000000000008152600401610810906129a0565b60405180910390fd5b61082483838361143b565b505050565b6108336009611697565b8110610874576040517f08c379a000000000000000000000000000000000000000000000000000000000815260040161086b90612980565b60405180910390fd5b61087e33826116a5565b61092381600a600084815260200190815260200160002080546108a090612c16565b80601f01602080910402602001604051908101604052809291908181526020018280546108cc90612c16565b80156109195780601f106108ee57610100808354040283529160200191610919565b820191906000526020600020905b8154815290600101906020018083116108fc57829003601f168201915b50505050506116c3565b7f853514605b173780d1bcfabd427640796c7872f6eb74facca2fba9ff963848ff33826109506008611697565b60405161095f939291906126ec565b60405180910390a16109716008611737565b50565b61097c61129c565b73ffffffffffffffffffffffffffffffffffffffff1661099a610c38565b73ffffffffffffffffffffffffffffffffffffffff16146109f0576040517f08c379a00000000000000000000000000000000000000000000000000000000081526004016109e790612900565b60405180910390fd5b80600a60008481526020019081526020016000209080519060200190610a17929190611e66565b50610a226009611737565b5050565b610a4183838360405180602001604052806000815250610e75565b505050565b6000806002600084815260200190815260200160002060009054906101000a900473ffffffffffffffffffffffffffffffffffffffff169050600073ffffffffffffffffffffffffffffffffffffffff168173ffffffffffffffffffffffffffffffffffffffff161415610aef576040517f08c379a0000000000000000000000000000000000000000000000000000000008152600401610ae690612860565b60405180910390fd5b80915050919050565b60008073ffffffffffffffffffffffffffffffffffffffff168273ffffffffffffffffffffffffffffffffffffffff161415610b69576040517f08c379a0000000000000000000000000000000000000000000000000000000008152600401610b6090612840565b60405180910390fd5b600360008373ffffffffffffffffffffffffffffffffffffffff1673ffffffffffffffffffffffffffffffffffffffff168152602001908152602001600020549050919050565b610bb861129c565b73ffffffffffffffffffffffffffffffffffffffff16610bd6610c38565b73ffffffffffffffffffffffffffffffffffffffff1614610c2c576040517f08c379a0000000000000000000000000000000000000000000000000000000008152600401610c2390612900565b60405180910390fd5b610c36600061174d565b565b6000600760009054906101000a900473ffffffffffffffffffffffffffffffffffffffff16905090565b606060018054610c7190612c16565b80601f0160208091040260200160405190810160405280929190818152602001828054610c9d90612c16565b8015610cea5780601f10610cbf57610100808354040283529160200191610cea565b820191906000526020600020905b815481529060010190602001808311610ccd57829003601f168201915b5050505050905090565b610cfc61129c565b73ffffffffffffffffffffffffffffffffffffffff168273ffffffffffffffffffffffffffffffffffffffff161415610d6a576040517f08c379a0000000000000000000000000000000000000000000000000000000008152600401610d61906127e0565b60405180910390fd5b8060056000610d7761129c565b73ffffffffffffffffffffffffffffffffffffffff1673ffffffffffffffffffffffffffffffffffffffff16815260200190815260200160002060008473ffffffffffffffffffffffffffffffffffffffff1673ffffffffffffffffffffffffffffffffffffffff16815260200190815260200160002060006101000a81548160ff0219169083151502179055508173ffffffffffffffffffffffffffffffffffffffff16610e2461129c565b73ffffffffffffffffffffffffffffffffffffffff167f17307eab39ab6107e8899845ad3d59bd9653f200f220920489ca2b5937696c3183604051610e699190612723565b60405180910390a35050565b610e86610e8061129c565b8361135d565b610ec5576040517f08c379a0000000000000000000000000000000000000000000000000000000008152600401610ebc906129a0565b60405180910390fd5b610ed184848484611813565b50505050565b6060610ee282611230565b610f21576040517f08c379a0000000000000000000000000000000000000000000000000000000008152600401610f18906128c0565b60405180910390fd5b6000600660008481526020019081526020016000208054610f4190612c16565b80601f0160208091040260200160405190810160405280929190818152602001828054610f6d90612c16565b8015610fba5780601f10610f8f57610100808354040283529160200191610fba565b820191906000526020600020905b815481529060010190602001808311610f9d57829003601f168201915b505050505090506000610fcb61186f565b9050600081511415610fe1578192505050611024565b600082511115611016578082604051602001610ffe929190612661565b60405160208183030381529060405292505050611024565b61101f84611886565b925050505b919050565b6000600560008473ffffffffffffffffffffffffffffffffffffffff1673ffffffffffffffffffffffffffffffffffffffff16815260200190815260200160002060008373ffffffffffffffffffffffffffffffffffffffff1673ffffffffffffffffffffffffffffffffffffffff16815260200190815260200160002060009054906101000a900460ff16905092915050565b60006110c96008611697565b905090565b6110d661129c565b73ffffffffffffffffffffffffffffffffffffffff166110f4610c38565b73ffffffffffffffffffffffffffffffffffffffff161461114a576040517f08c379a000000000000000000000000000000000000000000000000000000000815260040161114190612900565b60405180910390fd5b600073ffffffffffffffffffffffffffffffffffffffff168173ffffffffffffffffffffffffffffffffffffffff1614156111ba576040517f08c379a00000000000000000000000000000000000000000000000000000000081526004016111b190612780565b60405180910390fd5b6111c38161174d565b50565b60007f01ffc9a7000000000000000000000000000000000000000000000000000000007bffffffffffffffffffffffffffffffffffffffffffffffffffffffff1916827bffffffffffffffffffffffffffffffffffffffffffffffffffffffff1916149050919050565b60008073ffffffffffffffffffffffffffffffffffffffff166002600084815260200190815260200160002060009054906101000a900473ffffffffffffffffffffffffffffffffffffffff1673ffffffffffffffffffffffffffffffffffffffff1614159050919050565b600033905090565b816004600083815260200190815260200160002060006101000a81548173ffffffffffffffffffffffffffffffffffffffff021916908373ffffffffffffffffffffffffffffffffffffffff160217905550808273ffffffffffffffffffffffffffffffffffffffff1661131783610a46565b73ffffffffffffffffffffffffffffffffffffffff167f8c5be1e5ebec7d5bd14f71427d1e84f3dd0314c0f7b2291e5b200ac8c7c3b92560405160405180910390a45050565b600061136882611230565b6113a7576040517f08c379a000000000000000000000000000000000000000000000000000000000815260040161139e90612800565b60405180910390fd5b60006113b283610a46565b90508073ffffffffffffffffffffffffffffffffffffffff168473ffffffffffffffffffffffffffffffffffffffff16148061142157508373ffffffffffffffffffffffffffffffffffffffff1661140984610580565b73ffffffffffffffffffffffffffffffffffffffff16145b8061143257506114318185611029565b5b91505092915050565b8273ffffffffffffffffffffffffffffffffffffffff1661145b82610a46565b73ffffffffffffffffffffffffffffffffffffffff16146114b1576040517f08c379a00000000000000000000000000000000000000000000000000000000081526004016114a890612920565b60405180910390fd5b600073ffffffffffffffffffffffffffffffffffffffff168273ffffffffffffffffffffffffffffffffffffffff161415611521576040517f08c379a0000000000000000000000000000000000000000000000000000000008152600401611518906127c0565b60405180910390fd5b61152c83838361192d565b6115376000826112a4565b6001600360008573ffffffffffffffffffffffffffffffffffffffff1673ffffffffffffffffffffffffffffffffffffffff16815260200190815260200160002060008282546115879190612b2c565b925050819055506001600360008473ffffffffffffffffffffffffffffffffffffffff1673ffffffffffffffffffffffffffffffffffffffff16815260200190815260200160002060008282546115de9190612aa5565b92505081905550816002600083815260200190815260200160002060006101000a81548173ffffffffffffffffffffffffffffffffffffffff021916908373ffffffffffffffffffffffffffffffffffffffff160217905550808273ffffffffffffffffffffffffffffffffffffffff168473ffffffffffffffffffffffffffffffffffffffff167fddf252ad1be2c89b69c2b068fc378daa952ba7f163c4a11628f55a4df523b3ef60405160405180910390a4505050565b600081600001549050919050565b6116bf828260405180602001604052806000815250611932565b5050565b6116cc82611230565b61170b576040517f08c379a000000000000000000000000000000000000000000000000000000000815260040161170290612880565b60405180910390fd5b80600660008481526020019081526020016000209080519060200190611732929190611e66565b505050565b6001816000016000828254019250508190555050565b6000600760009054906101000a900473ffffffffffffffffffffffffffffffffffffffff16905081600760006101000a81548173ffffffffffffffffffffffffffffffffffffffff021916908373ffffffffffffffffffffffffffffffffffffffff1602179055508173ffffffffffffffffffffffffffffffffffffffff168173ffffffffffffffffffffffffffffffffffffffff167f8be0079c531659141344cd1fd0a4f28419497f9722a3daafe3b4186f6b6457e060405160405180910390a35050565b61181e84848461143b565b61182a8484848461198d565b611869576040517f08c379a000000000000000000000000000000000000000000000000000000000815260040161186090612760565b60405180910390fd5b50505050565b606060405180602001604052806000815250905090565b606061189182611230565b6118d0576040517f08c379a00000000000000000000000000000000000000000000000000000000081526004016118c790612940565b60405180910390fd5b60006118da61186f565b905060008151116118fa5760405180602001604052806000815250611925565b8061190484611b24565b604051602001611915929190612661565b6040516020818303038152906040525b915050919050565b505050565b61193c8383611c85565b611949600084848461198d565b611988576040517f08c379a000000000000000000000000000000000000000000000000000000000815260040161197f90612760565b60405180910390fd5b505050565b60006119ae8473ffffffffffffffffffffffffffffffffffffffff16611e53565b15611b17578373ffffffffffffffffffffffffffffffffffffffff1663150b7a026119d761129c565b8786866040518563ffffffff1660e01b81526004016119f994939291906126a0565b602060405180830381600087803b158015611a1357600080fd5b505af1925050508015611a4457506040513d601f19601f82011682018060405250810190611a419190612242565b60015b611ac7573d8060008114611a74576040519150601f19603f3d011682016040523d82523d6000602084013e611a79565b606091505b50600081511415611abf576040517f08c379a0000000000000000000000000000000000000000000000000000000008152600401611ab690612760565b60405180910390fd5b805181602001fd5b63150b7a0260e01b7bffffffffffffffffffffffffffffffffffffffffffffffffffffffff1916817bffffffffffffffffffffffffffffffffffffffffffffffffffffffff191614915050611b1c565b600190505b949350505050565b60606000821415611b6c576040518060400160405280600181526020017f30000000000000000000000000000000000000000000000000000000000000008152509050611c80565b600082905060005b60008214611b9e578080611b8790612c79565b915050600a82611b979190612afb565b9150611b74565b60008167ffffffffffffffff811115611bba57611bb9612daf565b5b6040519080825280601f01601f191660200182016040528015611bec5781602001600182028036833780820191505090505b5090505b60008514611c7957600182611c059190612b2c565b9150600a85611c149190612cc2565b6030611c209190612aa5565b60f81b818381518110611c3657611c35612d80565b5b60200101907effffffffffffffffffffffffffffffffffffffffffffffffffffffffffffff1916908160001a905350600a85611c729190612afb565b9450611bf0565b8093505050505b919050565b600073ffffffffffffffffffffffffffffffffffffffff168273ffffffffffffffffffffffffffffffffffffffff161415611cf5576040517f08c379a0000000000000000000000000000000000000000000000000000000008152600401611cec906128a0565b60405180910390fd5b611cfe81611230565b15611d3e576040517f08c379a0000000000000000000000000000000000000000000000000000000008152600401611d35906127a0565b60405180910390fd5b611d4a6000838361192d565b6001600360008473ffffffffffffffffffffffffffffffffffffffff1673ffffffffffffffffffffffffffffffffffffffff1681526020019081526020016000206000828254611d9a9190612aa5565b92505081905550816002600083815260200190815260200160002060006101000a81548173ffffffffffffffffffffffffffffffffffffffff021916908373ffffffffffffffffffffffffffffffffffffffff160217905550808273ffffffffffffffffffffffffffffffffffffffff16600073ffffffffffffffffffffffffffffffffffffffff167fddf252ad1be2c89b69c2b068fc378daa952ba7f163c4a11628f55a4df523b3ef60405160405180910390a45050565b600080823b905060008111915050919050565b828054611e7290612c16565b90600052602060002090601f016020900481019282611e945760008555611edb565b82601f10611ead57805160ff1916838001178555611edb565b82800160010185558215611edb579182015b82811115611eda578251825591602001919060010190611ebf565b5b509050611ee89190611eec565b5090565b5b80821115611f05576000816000905550600101611eed565b5090565b6000611f1c611f1784612a00565b6129db565b905082815260208101848484011115611f3857611f37612de3565b5b611f43848285612bd4565b509392505050565b6000611f5e611f5984612a31565b6129db565b905082815260208101848484011115611f7a57611f79612de3565b5b611f85848285612bd4565b509392505050565b600081359050611f9c81613322565b92915050565b600081359050611fb181613339565b92915050565b600081359050611fc681613350565b92915050565b600081519050611fdb81613350565b92915050565b600082601f830112611ff657611ff5612dde565b5b8135612006848260208601611f09565b91505092915050565b600082601f83011261202457612023612dde565b5b8135612034848260208601611f4b565b91505092915050565b60008135905061204c81613367565b92915050565b60006020828403121561206857612067612ded565b5b600061207684828501611f8d565b91505092915050565b6000806040838503121561209657612095612ded565b5b60006120a485828601611f8d565b92505060206120b585828601611f8d565b9150509250929050565b6000806000606084860312156120d8576120d7612ded565b5b60006120e686828701611f8d565b93505060206120f786828701611f8d565b92505060406121088682870161203d565b9150509250925092565b6000806000806080858703121561212c5761212b612ded565b5b600061213a87828801611f8d565b945050602061214b87828801611f8d565b935050604061215c8782880161203d565b925050606085013567ffffffffffffffff81111561217d5761217c612de8565b5b61218987828801611fe1565b91505092959194509250565b600080604083850312156121ac576121ab612ded565b5b60006121ba85828601611f8d565b92505060206121cb85828601611fa2565b9150509250929050565b600080604083850312156121ec576121eb612ded565b5b60006121fa85828601611f8d565b925050602061220b8582860161203d565b9150509250929050565b60006020828403121561222b5761222a612ded565b5b600061223984828501611fb7565b91505092915050565b60006020828403121561225857612257612ded565b5b600061226684828501611fcc565b91505092915050565b60006020828403121561228557612284612ded565b5b60006122938482850161203d565b91505092915050565b600080604083850312156122b3576122b2612ded565b5b60006122c18582860161203d565b925050602083013567ffffffffffffffff8111156122e2576122e1612de8565b5b6122ee8582860161200f565b9150509250929050565b61230181612b60565b82525050565b61231081612b72565b82525050565b600061232182612a62565b61232b8185612a78565b935061233b818560208601612be3565b61234481612df2565b840191505092915050565b600061235a82612a6d565b6123648185612a89565b9350612374818560208601612be3565b61237d81612df2565b840191505092915050565b600061239382612a6d565b61239d8185612a9a565b93506123ad818560208601612be3565b80840191505092915050565b60006123c6603283612a89565b91506123d182612e03565b604082019050919050565b60006123e9602683612a89565b91506123f482612e52565b604082019050919050565b600061240c601c83612a89565b915061241782612ea1565b602082019050919050565b600061242f602483612a89565b915061243a82612eca565b604082019050919050565b6000612452601983612a89565b915061245d82612f19565b602082019050919050565b6000612475602c83612a89565b915061248082612f42565b604082019050919050565b6000612498603883612a89565b91506124a382612f91565b604082019050919050565b60006124bb602a83612a89565b91506124c682612fe0565b604082019050919050565b60006124de602983612a89565b91506124e98261302f565b604082019050919050565b6000612501602e83612a89565b915061250c8261307e565b604082019050919050565b6000612524602083612a89565b915061252f826130cd565b602082019050919050565b6000612547603183612a89565b9150612552826130f6565b604082019050919050565b600061256a602c83612a89565b915061257582613145565b604082019050919050565b600061258d602083612a89565b915061259882613194565b602082019050919050565b60006125b0602983612a89565b91506125bb826131bd565b604082019050919050565b60006125d3602f83612a89565b91506125de8261320c565b604082019050919050565b60006125f6602183612a89565b91506126018261325b565b604082019050919050565b6000612619601883612a89565b9150612624826132aa565b602082019050919050565b600061263c603183612a89565b9150612647826132d3565b604082019050919050565b61265b81612bca565b82525050565b600061266d8285612388565b91506126798284612388565b91508190509392505050565b600060208201905061269a60008301846122f8565b92915050565b60006080820190506126b560008301876122f8565b6126c260208301866122f8565b6126cf6040830185612652565b81810360608301526126e18184612316565b905095945050505050565b600060608201905061270160008301866122f8565b61270e6020830185612652565b61271b6040830184612652565b949350505050565b60006020820190506127386000830184612307565b92915050565b60006020820190508181036000830152612758818461234f565b905092915050565b60006020820190508181036000830152612779816123b9565b9050919050565b60006020820190508181036000830152612799816123dc565b9050919050565b600060208201905081810360008301526127b9816123ff565b9050919050565b600060208201905081810360008301526127d981612422565b9050919050565b600060208201905081810360008301526127f981612445565b9050919050565b6000602082019050818103600083015261281981612468565b9050919050565b600060208201905081810360008301526128398161248b565b9050919050565b60006020820190508181036000830152612859816124ae565b9050919050565b60006020820190508181036000830152612879816124d1565b9050919050565b60006020820190508181036000830152612899816124f4565b9050919050565b600060208201905081810360008301526128b981612517565b9050919050565b600060208201905081810360008301526128d98161253a565b9050919050565b600060208201905081810360008301526128f98161255d565b9050919050565b6000602082019050818103600083015261291981612580565b9050919050565b60006020820190508181036000830152612939816125a3565b9050919050565b60006020820190508181036000830152612959816125c6565b9050919050565b60006020820190508181036000830152612979816125e9565b9050919050565b600060208201905081810360008301526129998161260c565b9050919050565b600060208201905081810360008301526129b98161262f565b9050919050565b60006020820190506129d56000830184612652565b92915050565b60006129e56129f6565b90506129f18282612c48565b919050565b6000604051905090565b600067ffffffffffffffff821115612a1b57612a1a612daf565b5b612a2482612df2565b9050602081019050919050565b600067ffffffffffffffff821115612a4c57612a4b612daf565b5b612a5582612df2565b9050602081019050919050565b600081519050919050565b600081519050919050565b600082825260208201905092915050565b600082825260208201905092915050565b600081905092915050565b6000612ab082612bca565b9150612abb83612bca565b9250827fffffffffffffffffffffffffffffffffffffffffffffffffffffffffffffffff03821115612af057612aef612cf3565b5b828201905092915050565b6000612b0682612bca565b9150612b1183612bca565b925082612b2157612b20612d22565b5b828204905092915050565b6000612b3782612bca565b9150612b4283612bca565b925082821015612b5557612b54612cf3565b5b828203905092915050565b6000612b6b82612baa565b9050919050565b60008115159050919050565b60007fffffffff0000000000000000000000000000000000000000000000000000000082169050919050565b600073ffffffffffffffffffffffffffffffffffffffff82169050919050565b6000819050919050565b82818337600083830152505050565b60005b83811015612c01578082015181840152602081019050612be6565b83811115612c10576000848401525b50505050565b60006002820490506001821680612c2e57607f821691505b60208210811415612c4257612c41612d51565b5b50919050565b612c5182612df2565b810181811067ffffffffffffffff82111715612c7057612c6f612daf565b5b80604052505050565b6000612c8482612bca565b91507fffffffffffffffffffffffffffffffffffffffffffffffffffffffffffffffff821415612cb757612cb6612cf3565b5b600182019050919050565b6000612ccd82612bca565b9150612cd883612bca565b925082612ce857612ce7612d22565b5b828206905092915050565b7f4e487b7100000000000000000000000000000000000000000000000000000000600052601160045260246000fd5b7f4e487b7100000000000000000000000000000000000000000000000000000000600052601260045260246000fd5b7f4e487b7100000000000000000000000000000000000000000000000000000000600052602260045260246000fd5b7f4e487b7100000000000000000000000000000000000000000000000000000000600052603260045260246000fd5b7f4e487b7100000000000000000000000000000000000000000000000000000000600052604160045260246000fd5b600080fd5b600080fd5b600080fd5b600080fd5b6000601f19601f8301169050919050565b7f4552433732313a207472616e7366657220746f206e6f6e20455243373231526560008201527f63656976657220696d706c656d656e7465720000000000000000000000000000602082015250565b7f4f776e61626c653a206e6577206f776e657220697320746865207a65726f206160008201527f6464726573730000000000000000000000000000000000000000000000000000602082015250565b7f4552433732313a20746f6b656e20616c7265616479206d696e74656400000000600082015250565b7f4552433732313a207472616e7366657220746f20746865207a65726f2061646460008201527f7265737300000000000000000000000000000000000000000000000000000000602082015250565b7f4552433732313a20617070726f766520746f2063616c6c657200000000000000600082015250565b7f4552433732313a206f70657261746f7220717565727920666f72206e6f6e657860008201527f697374656e7420746f6b656e0000000000000000000000000000000000000000602082015250565b7f4552433732313a20617070726f76652063616c6c6572206973206e6f74206f7760008201527f6e6572206e6f7220617070726f76656420666f7220616c6c0000000000000000602082015250565b7f4552433732313a2062616c616e636520717565727920666f7220746865207a6560008201527f726f206164647265737300000000000000000000000000000000000000000000602082015250565b7f4552433732313a206f776e657220717565727920666f72206e6f6e657869737460008201527f656e7420746f6b656e0000000000000000000000000000000000000000000000602082015250565b7f45524337323155524953746f726167653a2055524920736574206f66206e6f6e60008201527f6578697374656e7420746f6b656e000000000000000000000000000000000000602082015250565b7f4552433732313a206d696e7420746f20746865207a65726f2061646472657373600082015250565b7f45524337323155524953746f726167653a2055524920717565727920666f722060008201527f6e6f6e6578697374656e7420746f6b656e000000000000000000000000000000602082015250565b7f4552433732313a20617070726f76656420717565727920666f72206e6f6e657860008201527f697374656e7420746f6b656e0000000000000000000000000000000000000000602082015250565b7f4f776e61626c653a2063616c6c6572206973206e6f7420746865206f776e6572600082015250565b7f4552433732313a207472616e73666572206f6620746f6b656e2074686174206960008201527f73206e6f74206f776e0000000000000000000000000000000000000000000000602082015250565b7f4552433732314d657461646174613a2055524920717565727920666f72206e6f60008201527f6e6578697374656e7420746f6b656e0000000000000000000000000000000000602082015250565b7f4552433732313a20617070726f76616c20746f2063757272656e74206f776e6560008201527f7200000000000000000000000000000000000000000000000000000000000000602082015250565b7f546f6b656e204944206973206f7574206f662072616e67650000000000000000600082015250565b7f4552433732313a207472616e736665722063616c6c6572206973206e6f74206f60008201527f776e6572206e6f7220617070726f766564000000000000000000000000000000602082015250565b61332b81612b60565b811461333657600080fd5b50565b61334281612b72565b811461334d57600080fd5b50565b61335981612b7e565b811461336457600080fd5b50565b61337081612bca565b811461337b57600080fd5b5056fea26469706673582212203def9e1442d7987490ba80a54506503645d71c6e5eb179bfce171ef16ac50ae964736f6c63430008070033",
  "linkReferences": {},
  "deployedLinkReferences": {}
}