{
  "_format": "hh-sol-artifact-1",
  "contractName": "PriceConsumerV3",
  "sourceName": "contracts/PriceConsumerV3.sol",
  "abi": [
    {
      "inputs": [],
      "stateMutability": "nonpayable",
      "type": "constructor"
    },
    {
      "inputs": [
        {
          "internalType": "uint80",
          "name": "_roundId",
          "type": "uint80"
        }
      ],
      "name": "getRoundData",
      "outputs": [
        {
          "internalType": "uint80",
          "name": "",
          "type": "uint80"
        },
        {
          "internalType": "int256",
          "name": "",
          "type": "int256"
        },
        {
          "internalType": "uint256",
          "name": "",
          "type": "uint256"
        },
        {
          "internalType": "uint256",
          "name": "",
          "type": "uint256"
        },
        {
          "internalType": "uint80",
          "name": "",
          "type": "uint80"
        }
      ],
      "stateMutability": "view",
      "type": "function"
    },
    {
      "inputs": [],
      "name": "latestRoundData",
      "outputs": [
        {
          "internalType": "uint80",
          "name": "",
          "type": "uint80"
        },
        {
          "internalType": "int256",
          "name": "",
          "type": "int256"
        },
        {
          "internalType": "uint256",
          "name": "",
          "type": "uint256"
        },
        {
          "internalType": "uint256",
          "name": "",
          "type": "uint256"
        },
        {
          "internalType": "uint80",
          "name": "",
          "type": "uint80"
        }
      ],
      "stateMutability": "view",
      "type": "function"
    }
  ],
  "bytecode": "0x608060405234801561001057600080fd5b50738a753747a1fa494ec906ce90e9f37563a8af630e6000806101000a81548173ffffffffffffffffffffffffffffffffffffffff021916908373ffffffffffffffffffffffffffffffffffffffff160217905550610543806100746000396000f3fe608060405234801561001057600080fd5b50600436106100365760003560e01c80639a6fc8f51461003b578063feaf968c1461006f575b600080fd5b610055600480360381019061005091906102d9565b610091565b60405161006695949392919061040c565b60405180910390f35b6100776101b3565b60405161008895949392919061040c565b60405180910390f35b60008060008060008060008060008060008054906101000a900473ffffffffffffffffffffffffffffffffffffffff1673ffffffffffffffffffffffffffffffffffffffff16639a6fc8f58c6040518263ffffffff1660e01b81526004016100f991906103f1565b60a06040518083038186803b15801561011157600080fd5b505afa158015610125573d6000803e3d6000fd5b505050506040513d601f19601f820116820180604052508101906101499190610306565b9450945094509450945060008211610196576040517f08c379a000000000000000000000000000000000000000000000000000000000815260040161018d906103d1565b60405180910390fd5b848484848499509950995099509950505050505091939590929450565b60008060008060008060008060008060008054906101000a900473ffffffffffffffffffffffffffffffffffffffff1673ffffffffffffffffffffffffffffffffffffffff1663feaf968c6040518163ffffffff1660e01b815260040160a06040518083038186803b15801561022857600080fd5b505afa15801561023c573d6000803e3d6000fd5b505050506040513d601f19601f820116820180604052508101906102609190610306565b9450945094509450945084848484849950995099509950995050505050509091929394565b600081519050610294816104c8565b92915050565b6000815190506102a9816104df565b92915050565b6000813590506102be816104f6565b92915050565b6000815190506102d3816104f6565b92915050565b6000602082840312156102ef576102ee61049a565b5b60006102fd848285016102af565b91505092915050565b600080600080600060a086880312156103225761032161049a565b5b6000610330888289016102c4565b955050602061034188828901610285565b94505060406103528882890161029a565b93505060606103638882890161029a565b9250506080610374888289016102c4565b9150509295509295909350565b61038a81610470565b82525050565b600061039d60128361045f565b91506103a88261049f565b602082019050919050565b6103bc8161047a565b82525050565b6103cb81610484565b82525050565b600060208201905081810360008301526103ea81610390565b9050919050565b600060208201905061040660008301846103c2565b92915050565b600060a08201905061042160008301886103c2565b61042e6020830187610381565b61043b60408301866103b3565b61044860608301856103b3565b61045560808301846103c2565b9695505050505050565b600082825260208201905092915050565b6000819050919050565b6000819050919050565b600069ffffffffffffffffffff82169050919050565b600080fd5b7f526f756e64206e6f7420636f6d706c6574650000000000000000000000000000600082015250565b6104d181610470565b81146104dc57600080fd5b50565b6104e88161047a565b81146104f357600080fd5b50565b6104ff81610484565b811461050a57600080fd5b5056fea2646970667358221220f772490e4b1351c129e003e55354ed6a8202fec833322e5829f5a951693a397064736f6c63430008070033",
  "linkReferences": {},
  "deployedLinkReferences": {}
}