{
  "_format": "hh-sol-artifact-1",
  "contractName": "PriceConsumerV3",
  "sourceName": "contracts/PriceConsumerV3.sol",
  "abi": [
    {
      "inputs": [],
      "stateMutability": "nonpayable",
      "type": "constructor"
    },
    {
      "inputs": [
        {
          "internalType": "uint80",
          "name": "_roundId",
          "type": "uint80"
        }
      ],
      "name": "getRoundData",
      "outputs": [
        {
          "internalType": "uint80",
          "name": "",
          "type": "uint80"
        },
        {
          "internalType": "int256",
          "name": "",
          "type": "int256"
        },
        {
          "internalType": "uint256",
          "name": "",
          "type": "uint256"
        },
        {
          "internalType": "uint256",
          "name": "",
          "type": "uint256"
        },
        {
          "internalType": "uint80",
          "name": "",
          "type": "uint80"
        }
      ],
      "stateMutability": "view",
      "type": "function"
    },
    {
      "inputs": [],
      "name": "latestRoundData",
      "outputs": [
        {
          "internalType": "uint80",
          "name": "",
          "type": "uint80"
        },
        {
          "internalType": "int256",
          "name": "",
          "type": "int256"
        },
        {
          "internalType": "uint256",
          "name": "",
          "type": "uint256"
        },
        {
          "internalType": "uint256",
          "name": "",
          "type": "uint256"
        },
        {
          "internalType": "uint80",
          "name": "",
          "type": "uint80"
        }
      ],
      "stateMutability": "view",
      "type": "function"
    }
  ],
  "bytecode": "0x608060405234801561001057600080fd5b50738a753747a1fa494ec906ce90e9f37563a8af630e6000806101000a81548173ffffffffffffffffffffffffffffffffffffffff021916908373ffffffffffffffffffffffffffffffffffffffff160217905550610529806100746000396000f3fe608060405234801561001057600080fd5b50600436106100365760003560e01c80639a6fc8f51461003b578063feaf968c1461006f575b600080fd5b610055600480360381019061005091906102bf565b610091565b6040516100669594939291906103f2565b60405180910390f35b6100776101b3565b6040516100889594939291906103f2565b60405180910390f35b60008060008060008060008060008060008054906101000a900473ffffffffffffffffffffffffffffffffffffffff1673ffffffffffffffffffffffffffffffffffffffff16639a6fc8f58c6040518263ffffffff1660e01b81526004016100f991906103d7565b60a06040518083038186803b15801561011157600080fd5b505afa158015610125573d6000803e3d6000fd5b505050506040513d601f19601f8201168201806040525081019061014991906102ec565b9450945094509450945060008211610196576040517f08c379a000000000000000000000000000000000000000000000000000000000815260040161018d906103b7565b60405180910390fd5b848484848499509950995099509950505050505091939590929450565b60008060008060008060009054906101000a900473ffffffffffffffffffffffffffffffffffffffff1673ffffffffffffffffffffffffffffffffffffffff1663feaf968c6040518163ffffffff1660e01b815260040160a06040518083038186803b15801561022257600080fd5b505afa158015610236573d6000803e3d6000fd5b505050506040513d601f19601f8201168201806040525081019061025a91906102ec565b945094509450945094509091929394565b60008151905061027a816104ae565b92915050565b60008151905061028f816104c5565b92915050565b6000813590506102a4816104dc565b92915050565b6000815190506102b9816104dc565b92915050565b6000602082840312156102d5576102d4610480565b5b60006102e384828501610295565b91505092915050565b600080600080600060a0868803121561030857610307610480565b5b6000610316888289016102aa565b95505060206103278882890161026b565b945050604061033888828901610280565b935050606061034988828901610280565b925050608061035a888289016102aa565b9150509295509295909350565b61037081610456565b82525050565b6000610383601283610445565b915061038e82610485565b602082019050919050565b6103a281610460565b82525050565b6103b18161046a565b82525050565b600060208201905081810360008301526103d081610376565b9050919050565b60006020820190506103ec60008301846103a8565b92915050565b600060a08201905061040760008301886103a8565b6104146020830187610367565b6104216040830186610399565b61042e6060830185610399565b61043b60808301846103a8565b9695505050505050565b600082825260208201905092915050565b6000819050919050565b6000819050919050565b600069ffffffffffffffffffff82169050919050565b600080fd5b7f526f756e64206e6f7420636f6d706c6574650000000000000000000000000000600082015250565b6104b781610456565b81146104c257600080fd5b50565b6104ce81610460565b81146104d957600080fd5b50565b6104e58161046a565b81146104f057600080fd5b5056fea2646970667358221220137178119d2d3e40c1a6544c9d88b97dd2867b1df18db1673cd1aacc3e3572ee64736f6c63430008070033",
  "linkReferences": {},
  "deployedLinkReferences": {}
}